{
	"FundeMe.sol": {
		"FundMe": {
			"abi": [
				{
					"inputs": [],
					"stateMutability": "nonpayable",
					"type": "constructor"
				},
				{
					"inputs": [
						{
							"internalType": "address",
							"name": "",
							"type": "address"
						}
					],
					"name": "addressToAmountFunded",
					"outputs": [
						{
							"internalType": "uint256",
							"name": "",
							"type": "uint256"
						}
					],
					"stateMutability": "view",
					"type": "function"
				},
				{
					"inputs": [],
					"name": "fund",
					"outputs": [],
					"stateMutability": "payable",
					"type": "function"
				},
				{
					"inputs": [
						{
							"internalType": "uint256",
							"name": "",
							"type": "uint256"
						}
					],
					"name": "funders",
					"outputs": [
						{
							"internalType": "address",
							"name": "",
							"type": "address"
						}
					],
					"stateMutability": "view",
					"type": "function"
				},
				{
					"inputs": [],
					"name": "minimumUsd",
					"outputs": [
						{
							"internalType": "uint256",
							"name": "",
							"type": "uint256"
						}
					],
					"stateMutability": "view",
					"type": "function"
				},
				{
					"inputs": [],
					"name": "owner",
					"outputs": [
						{
							"internalType": "address",
							"name": "",
							"type": "address"
						}
					],
					"stateMutability": "view",
					"type": "function"
				},
				{
					"inputs": [],
					"name": "withdraw",
					"outputs": [],
					"stateMutability": "nonpayable",
					"type": "function"
				}
			],
			"devdoc": {
				"kind": "dev",
				"methods": {},
				"version": 1
			},
			"evm": {
				"assembly": "    /* \"FundeMe.sol\":197:1917  contract FundMe{... */\n  mstore(0x40, 0x80)\n    /* \"FundeMe.sol\":287:291  5e18 */\n  0x4563918244f40000\n    /* \"FundeMe.sol\":259:291  uint256 public minimumUsd = 5e18 */\n  0x00\n  sstore\n    /* \"FundeMe.sol\":418:460  constructor(){... */\n  callvalue\n  dup1\n  iszero\n  tag_1\n  jumpi\n  revert(0x00, 0x00)\ntag_1:\n  pop\n    /* \"FundeMe.sol\":446:456  msg.sender */\n  caller\n    /* \"FundeMe.sol\":438:443  owner */\n  0x03\n  0x00\n    /* \"FundeMe.sol\":438:456  owner = msg.sender */\n  0x0100\n  exp\n  dup2\n  sload\n  dup2\n  0xffffffffffffffffffffffffffffffffffffffff\n  mul\n  not\n  and\n  swap1\n  dup4\n  0xffffffffffffffffffffffffffffffffffffffff\n  and\n  mul\n  or\n  swap1\n  sstore\n  pop\n    /* \"FundeMe.sol\":197:1917  contract FundMe{... */\n  dataSize(sub_0)\n  dup1\n  dataOffset(sub_0)\n  0x00\n  codecopy\n  0x00\n  return\nstop\n\nsub_0: assembly {\n        /* \"FundeMe.sol\":197:1917  contract FundMe{... */\n      mstore(0x40, 0x80)\n      jumpi(tag_1, lt(calldatasize, 0x04))\n      shr(0xe0, calldataload(0x00))\n      dup1\n      0x098de820\n      eq\n      tag_2\n      jumpi\n      dup1\n      0x3ccfd60b\n      eq\n      tag_3\n      jumpi\n      dup1\n      0x3e47d6f3\n      eq\n      tag_4\n      jumpi\n      dup1\n      0x8da5cb5b\n      eq\n      tag_5\n      jumpi\n      dup1\n      0xb60d4288\n      eq\n      tag_6\n      jumpi\n      dup1\n      0xdc0d3dff\n      eq\n      tag_7\n      jumpi\n    tag_1:\n      revert(0x00, 0x00)\n        /* \"FundeMe.sol\":259:291  uint256 public minimumUsd = 5e18 */\n    tag_2:\n      callvalue\n      dup1\n      iszero\n      tag_8\n      jumpi\n      revert(0x00, 0x00)\n    tag_8:\n      pop\n      tag_9\n      tag_10\n      jump\t// in\n    tag_9:\n      mload(0x40)\n      tag_11\n      swap2\n      swap1\n      tag_12\n      jump\t// in\n    tag_11:\n      mload(0x40)\n      dup1\n      swap2\n      sub\n      swap1\n      return\n        /* \"FundeMe.sol\":884:1792  function withdraw() public onlyOwner{... */\n    tag_3:\n      callvalue\n      dup1\n      iszero\n      tag_13\n      jumpi\n      revert(0x00, 0x00)\n    tag_13:\n      pop\n      tag_14\n      tag_15\n      jump\t// in\n    tag_14:\n      stop\n        /* \"FundeMe.sol\":329:386  mapping (address => uint256) public addressToAmountFunded */\n    tag_4:\n      callvalue\n      dup1\n      iszero\n      tag_16\n      jumpi\n      revert(0x00, 0x00)\n    tag_16:\n      pop\n      tag_17\n      0x04\n      dup1\n      calldatasize\n      sub\n      dup2\n      add\n      swap1\n      tag_18\n      swap2\n      swap1\n      tag_19\n      jump\t// in\n    tag_18:\n      tag_20\n      jump\t// in\n    tag_17:\n      mload(0x40)\n      tag_21\n      swap2\n      swap1\n      tag_12\n      jump\t// in\n    tag_21:\n      mload(0x40)\n      dup1\n      swap2\n      sub\n      swap1\n      return\n        /* \"FundeMe.sol\":393:413  address public owner */\n    tag_5:\n      callvalue\n      dup1\n      iszero\n      tag_22\n      jumpi\n      revert(0x00, 0x00)\n    tag_22:\n      pop\n      tag_23\n      tag_24\n      jump\t// in\n    tag_23:\n      mload(0x40)\n      tag_25\n      swap2\n      swap1\n      tag_26\n      jump\t// in\n    tag_25:\n      mload(0x40)\n      dup1\n      swap2\n      sub\n      swap1\n      return\n        /* \"FundeMe.sol\":468:877  function fund() public payable {... */\n    tag_6:\n      tag_27\n      tag_28\n      jump\t// in\n    tag_27:\n      stop\n        /* \"FundeMe.sol\":298:322  address[] public funders */\n    tag_7:\n      callvalue\n      dup1\n      iszero\n      tag_29\n      jumpi\n      revert(0x00, 0x00)\n    tag_29:\n      pop\n      tag_30\n      0x04\n      dup1\n      calldatasize\n      sub\n      dup2\n      add\n      swap1\n      tag_31\n      swap2\n      swap1\n      tag_32\n      jump\t// in\n    tag_31:\n      tag_33\n      jump\t// in\n    tag_30:\n      mload(0x40)\n      tag_34\n      swap2\n      swap1\n      tag_26\n      jump\t// in\n    tag_34:\n      mload(0x40)\n      dup1\n      swap2\n      sub\n      swap1\n      return\n        /* \"FundeMe.sol\":259:291  uint256 public minimumUsd = 5e18 */\n    tag_10:\n      sload(0x00)\n      dup2\n      jump\t// out\n        /* \"FundeMe.sol\":884:1792  function withdraw() public onlyOwner{... */\n    tag_15:\n        /* \"FundeMe.sol\":1854:1859  owner */\n      0x03\n      0x00\n      swap1\n      sload\n      swap1\n      0x0100\n      exp\n      swap1\n      div\n      0xffffffffffffffffffffffffffffffffffffffff\n      and\n        /* \"FundeMe.sol\":1840:1859  msg.sender == owner */\n      0xffffffffffffffffffffffffffffffffffffffff\n      and\n        /* \"FundeMe.sol\":1840:1850  msg.sender */\n      caller\n        /* \"FundeMe.sol\":1840:1859  msg.sender == owner */\n      0xffffffffffffffffffffffffffffffffffffffff\n      and\n      eq\n        /* \"FundeMe.sol\":1832:1879  require(msg.sender == owner, \"Not authorized!\") */\n      tag_36\n      jumpi\n      mload(0x40)\n      0x08c379a000000000000000000000000000000000000000000000000000000000\n      dup2\n      mstore\n      0x04\n      add\n      tag_37\n      swap1\n      tag_38\n      jump\t// in\n    tag_37:\n      mload(0x40)\n      dup1\n      swap2\n      sub\n      swap1\n      revert\n    tag_36:\n        /* \"FundeMe.sol\":1022:1041  uint256 funderIndex */\n      0x00\n        /* \"FundeMe.sol\":1044:1045  0 */\n      0x00\n        /* \"FundeMe.sol\":1022:1045  uint256 funderIndex = 0 */\n      swap1\n      pop\n        /* \"FundeMe.sol\":1018:1205  for(uint256 funderIndex = 0; funderIndex < funders.length; funderIndex++){... */\n    tag_40:\n        /* \"FundeMe.sol\":1061:1068  funders */\n      0x01\n        /* \"FundeMe.sol\":1061:1075  funders.length */\n      dup1\n      sload\n      swap1\n      pop\n        /* \"FundeMe.sol\":1047:1058  funderIndex */\n      dup2\n        /* \"FundeMe.sol\":1047:1075  funderIndex < funders.length */\n      lt\n        /* \"FundeMe.sol\":1018:1205  for(uint256 funderIndex = 0; funderIndex < funders.length; funderIndex++){... */\n      iszero\n      tag_41\n      jumpi\n        /* \"FundeMe.sol\":1106:1120  address funder */\n      0x00\n        /* \"FundeMe.sol\":1123:1130  funders */\n      0x01\n        /* \"FundeMe.sol\":1131:1142  funderIndex */\n      dup3\n        /* \"FundeMe.sol\":1123:1143  funders[funderIndex] */\n      dup2\n      sload\n      dup2\n      lt\n      tag_43\n      jumpi\n      tag_44\n      tag_45\n      jump\t// in\n    tag_44:\n    tag_43:\n      swap1\n      0x00\n      mstore\n      keccak256(0x00, 0x20)\n      add\n      0x00\n      swap1\n      sload\n      swap1\n      0x0100\n      exp\n      swap1\n      div\n      0xffffffffffffffffffffffffffffffffffffffff\n      and\n        /* \"FundeMe.sol\":1106:1143  address funder = funders[funderIndex] */\n      swap1\n      pop\n        /* \"FundeMe.sol\":1190:1191  0 */\n      0x00\n        /* \"FundeMe.sol\":1158:1179  addressToAmountFunded */\n      0x02\n        /* \"FundeMe.sol\":1158:1187  addressToAmountFunded[funder] */\n      0x00\n        /* \"FundeMe.sol\":1180:1186  funder */\n      dup4\n        /* \"FundeMe.sol\":1158:1187  addressToAmountFunded[funder] */\n      0xffffffffffffffffffffffffffffffffffffffff\n      and\n      0xffffffffffffffffffffffffffffffffffffffff\n      and\n      dup2\n      mstore\n      0x20\n      add\n      swap1\n      dup2\n      mstore\n      0x20\n      add\n      0x00\n      keccak256\n        /* \"FundeMe.sol\":1158:1191  addressToAmountFunded[funder] = 0 */\n      dup2\n      swap1\n      sstore\n      pop\n        /* \"FundeMe.sol\":1091:1205  {... */\n      pop\n        /* \"FundeMe.sol\":1077:1090  funderIndex++ */\n      dup1\n      dup1\n      0x01\n      add\n      swap2\n      pop\n      pop\n        /* \"FundeMe.sol\":1018:1205  for(uint256 funderIndex = 0; funderIndex < funders.length; funderIndex++){... */\n      jump(tag_40)\n    tag_41:\n      pop\n        /* \"FundeMe.sol\":1239:1240  0 */\n      0x00\n        /* \"FundeMe.sol\":1225:1241  new address[](0) */\n      0xffffffffffffffff\n      dup2\n      gt\n      iszero\n      tag_47\n      jumpi\n      tag_48\n      tag_49\n      jump\t// in\n    tag_48:\n    tag_47:\n      mload(0x40)\n      swap1\n      dup1\n      dup3\n      mstore\n      dup1\n      0x20\n      mul\n      0x20\n      add\n      dup3\n      add\n      0x40\n      mstore\n      dup1\n      iszero\n      tag_50\n      jumpi\n      dup2\n      0x20\n      add\n      0x20\n      dup3\n      mul\n      dup1\n      calldatasize\n      dup4\n      calldatacopy\n      dup1\n      dup3\n      add\n      swap2\n      pop\n      pop\n      swap1\n      pop\n    tag_50:\n      pop\n        /* \"FundeMe.sol\":1215:1222  funders */\n      0x01\n        /* \"FundeMe.sol\":1215:1241  funders = new address[](0) */\n      swap1\n      dup1\n      mload\n      swap1\n      0x20\n      add\n      swap1\n      tag_51\n      swap3\n      swap2\n      swap1\n      tag_52\n      jump\t// in\n    tag_51:\n      pop\n        /* \"FundeMe.sol\":1660:1676  bool callSuccess */\n      0x00\n        /* \"FundeMe.sol\":1688:1698  msg.sender */\n      caller\n        /* \"FundeMe.sol\":1680:1704  payable(msg.sender).call */\n      0xffffffffffffffffffffffffffffffffffffffff\n      and\n        /* \"FundeMe.sol\":1712:1733  address(this).balance */\n      selfbalance\n        /* \"FundeMe.sol\":1680:1738  payable(msg.sender).call{value: address(this).balance}(\"\") */\n      mload(0x40)\n      tag_53\n      swap1\n      tag_54\n      jump\t// in\n    tag_53:\n      0x00\n      mload(0x40)\n      dup1\n      dup4\n      sub\n      dup2\n      dup6\n      dup8\n      gas\n      call\n      swap3\n      pop\n      pop\n      pop\n      returndatasize\n      dup1\n      0x00\n      dup2\n      eq\n      tag_57\n      jumpi\n      mload(0x40)\n      swap2\n      pop\n      and(add(returndatasize, 0x3f), not(0x1f))\n      dup3\n      add\n      0x40\n      mstore\n      returndatasize\n      dup3\n      mstore\n      returndatasize\n      0x00\n      0x20\n      dup5\n      add\n      returndatacopy\n      jump(tag_56)\n    tag_57:\n      0x60\n      swap2\n      pop\n    tag_56:\n      pop\n        /* \"FundeMe.sol\":1659:1738  (bool callSuccess,) =payable(msg.sender).call{value: address(this).balance}(\"\") */\n      pop\n      swap1\n      pop\n        /* \"FundeMe.sol\":1757:1768  callSuccess */\n      dup1\n        /* \"FundeMe.sol\":1749:1784  require(callSuccess, \"Call failed\") */\n      tag_58\n      jumpi\n      mload(0x40)\n      0x08c379a000000000000000000000000000000000000000000000000000000000\n      dup2\n      mstore\n      0x04\n      add\n      tag_59\n      swap1\n      tag_60\n      jump\t// in\n    tag_59:\n      mload(0x40)\n      dup1\n      swap2\n      sub\n      swap1\n      revert\n    tag_58:\n        /* \"FundeMe.sol\":920:1792  {... */\n      pop\n        /* \"FundeMe.sol\":884:1792  function withdraw() public onlyOwner{... */\n      jump\t// out\n        /* \"FundeMe.sol\":329:386  mapping (address => uint256) public addressToAmountFunded */\n    tag_20:\n      mstore(0x20, 0x02)\n      dup1\n      0x00\n      mstore\n      keccak256(0x00, 0x40)\n      0x00\n      swap2\n      pop\n      swap1\n      pop\n      sload\n      dup2\n      jump\t// out\n        /* \"FundeMe.sol\":393:413  address public owner */\n    tag_24:\n      0x03\n      0x00\n      swap1\n      sload\n      swap1\n      0x0100\n      exp\n      swap1\n      div\n      0xffffffffffffffffffffffffffffffffffffffff\n      and\n      dup2\n      jump\t// out\n        /* \"FundeMe.sol\":468:877  function fund() public payable {... */\n    tag_28:\n        /* \"FundeMe.sol\":510:539  msg.value.getConversionRate() */\n      tag_62\n        /* \"FundeMe.sol\":510:519  msg.value */\n      callvalue\n        /* \"FundeMe.sol\":510:537  msg.value.getConversionRate */\n      tag_63\n        /* \"FundeMe.sol\":510:539  msg.value.getConversionRate() */\n      jump\t// in\n    tag_62:\n      pop\n        /* \"FundeMe.sol\":591:601  minimumUsd */\n      sload(0x00)\n        /* \"FundeMe.sol\":558:587  msg.value.getConversionRate() */\n      tag_64\n        /* \"FundeMe.sol\":558:567  msg.value */\n      callvalue\n        /* \"FundeMe.sol\":558:585  msg.value.getConversionRate */\n      tag_63\n        /* \"FundeMe.sol\":558:587  msg.value.getConversionRate() */\n      jump\t// in\n    tag_64:\n        /* \"FundeMe.sol\":558:601  msg.value.getConversionRate() >= minimumUsd */\n      lt\n      iszero\n        /* \"FundeMe.sol\":550:629  require(msg.value.getConversionRate() >= minimumUsd, \"did not send enough ETH\") */\n      tag_65\n      jumpi\n      mload(0x40)\n      0x08c379a000000000000000000000000000000000000000000000000000000000\n      dup2\n      mstore\n      0x04\n      add\n      tag_66\n      swap1\n      tag_67\n      jump\t// in\n    tag_66:\n      mload(0x40)\n      dup1\n      swap2\n      sub\n      swap1\n      revert\n    tag_65:\n        /* \"FundeMe.sol\":663:670  funders */\n      0x01\n        /* \"FundeMe.sol\":676:686  msg.sender */\n      caller\n        /* \"FundeMe.sol\":663:687  funders.push(msg.sender) */\n      swap1\n      dup1\n      0x01\n      dup2\n      sload\n      add\n      dup1\n      dup3\n      sstore\n      dup1\n      swap2\n      pop\n      pop\n      0x01\n      swap1\n      sub\n      swap1\n      0x00\n      mstore\n      keccak256(0x00, 0x20)\n      add\n      0x00\n      swap1\n      swap2\n      swap1\n      swap2\n      swap1\n      swap2\n      0x0100\n      exp\n      dup2\n      sload\n      dup2\n      0xffffffffffffffffffffffffffffffffffffffff\n      mul\n      not\n      and\n      swap1\n      dup4\n      0xffffffffffffffffffffffffffffffffffffffff\n      and\n      mul\n      or\n      swap1\n      sstore\n      pop\n        /* \"FundeMe.sol\":767:776  msg.value */\n      callvalue\n        /* \"FundeMe.sol\":731:752  addressToAmountFunded */\n      0x02\n        /* \"FundeMe.sol\":731:764  addressToAmountFunded[msg.sender] */\n      0x00\n        /* \"FundeMe.sol\":753:763  msg.sender */\n      caller\n        /* \"FundeMe.sol\":731:764  addressToAmountFunded[msg.sender] */\n      0xffffffffffffffffffffffffffffffffffffffff\n      and\n      0xffffffffffffffffffffffffffffffffffffffff\n      and\n      dup2\n      mstore\n      0x20\n      add\n      swap1\n      dup2\n      mstore\n      0x20\n      add\n      0x00\n      keccak256\n      sload\n        /* \"FundeMe.sol\":731:776  addressToAmountFunded[msg.sender] + msg.value */\n      tag_69\n      swap2\n      swap1\n      tag_70\n      jump\t// in\n    tag_69:\n        /* \"FundeMe.sol\":695:716  addressToAmountFunded */\n      0x02\n        /* \"FundeMe.sol\":695:728  addressToAmountFunded[msg.sender] */\n      0x00\n        /* \"FundeMe.sol\":717:727  msg.sender */\n      caller\n        /* \"FundeMe.sol\":695:728  addressToAmountFunded[msg.sender] */\n      0xffffffffffffffffffffffffffffffffffffffff\n      and\n      0xffffffffffffffffffffffffffffffffffffffff\n      and\n      dup2\n      mstore\n      0x20\n      add\n      swap1\n      dup2\n      mstore\n      0x20\n      add\n      0x00\n      keccak256\n        /* \"FundeMe.sol\":695:776  addressToAmountFunded[msg.sender] = addressToAmountFunded[msg.sender] + msg.value */\n      dup2\n      swap1\n      sstore\n      pop\n        /* \"FundeMe.sol\":468:877  function fund() public payable {... */\n      jump\t// out\n        /* \"FundeMe.sol\":298:322  address[] public funders */\n    tag_33:\n      0x01\n      dup2\n      dup2\n      sload\n      dup2\n      lt\n      tag_71\n      jumpi\n      0x00\n      dup1\n      revert\n    tag_71:\n      swap1\n      0x00\n      mstore\n      keccak256(0x00, 0x20)\n      add\n      0x00\n      swap2\n      pop\n      sload\n      swap1\n      0x0100\n      exp\n      swap1\n      div\n      0xffffffffffffffffffffffffffffffffffffffff\n      and\n      dup2\n      jump\t// out\n        /* \"PriceConverter.sol\":718:936  function getConversionRate(uint ethAmount) internal  view returns(uint256){... */\n    tag_63:\n        /* \"PriceConverter.sol\":784:791  uint256 */\n      0x00\n        /* \"PriceConverter.sol\":803:819  uint256 ethPrice */\n      0x00\n        /* \"PriceConverter.sol\":822:832  getPrice() */\n      tag_74\n        /* \"PriceConverter.sol\":822:830  getPrice */\n      tag_75\n        /* \"PriceConverter.sol\":822:832  getPrice() */\n      jump\t// in\n    tag_74:\n        /* \"PriceConverter.sol\":803:832  uint256 ethPrice = getPrice() */\n      swap1\n      pop\n        /* \"PriceConverter.sol\":843:865  uint256 ethAmountInUsd */\n      0x00\n        /* \"PriceConverter.sol\":892:896  1e10 */\n      0x02540be400\n        /* \"PriceConverter.sol\":880:889  ethAmount */\n      dup5\n        /* \"PriceConverter.sol\":869:877  ethPrice */\n      dup4\n        /* \"PriceConverter.sol\":869:889  ethPrice * ethAmount */\n      tag_76\n      swap2\n      swap1\n      tag_77\n      jump\t// in\n    tag_76:\n        /* \"PriceConverter.sol\":868:896  (ethPrice * ethAmount)/ 1e10 */\n      tag_78\n      swap2\n      swap1\n      tag_79\n      jump\t// in\n    tag_78:\n        /* \"PriceConverter.sol\":843:896  uint256 ethAmountInUsd = (ethPrice * ethAmount)/ 1e10 */\n      swap1\n      pop\n        /* \"PriceConverter.sol\":914:928  ethAmountInUsd */\n      dup1\n        /* \"PriceConverter.sol\":907:928  return ethAmountInUsd */\n      swap3\n      pop\n      pop\n      pop\n        /* \"PriceConverter.sol\":718:936  function getConversionRate(uint ethAmount) internal  view returns(uint256){... */\n      swap2\n      swap1\n      pop\n      jump\t// out\n        /* \"PriceConverter.sol\":205:712  function getPrice() internal  view returns (uint256){... */\n    tag_75:\n        /* \"PriceConverter.sol\":249:256  uint256 */\n      0x00\n        /* \"PriceConverter.sol\":346:377  AggregatorV3Interface priceFeed */\n      0x00\n        /* \"PriceConverter.sol\":402:444  0x694AA1769357215DE4FAC081bf1f309aDC325306 */\n      0x694aa1769357215de4fac081bf1f309adc325306\n        /* \"PriceConverter.sol\":346:445  AggregatorV3Interface priceFeed = AggregatorV3Interface(0x694AA1769357215DE4FAC081bf1f309aDC325306) */\n      swap1\n      pop\n        /* \"PriceConverter.sol\":504:516  int256 price */\n      0x00\n        /* \"PriceConverter.sol\":523:532  priceFeed */\n      dup2\n        /* \"PriceConverter.sol\":523:548  priceFeed.latestRoundData */\n      0xffffffffffffffffffffffffffffffffffffffff\n      and\n      0xfeaf968c\n        /* \"PriceConverter.sol\":523:550  priceFeed.latestRoundData() */\n      mload(0x40)\n      dup2\n      0xffffffff\n      and\n      0xe0\n      shl\n      dup2\n      mstore\n      0x04\n      add\n      0xa0\n      mload(0x40)\n      dup1\n      dup4\n      sub\n      dup2\n      dup7\n      gas\n      staticcall\n      iszero\n      dup1\n      iszero\n      tag_82\n      jumpi\n      returndatacopy(0x00, 0x00, returndatasize)\n      revert(0x00, returndatasize)\n    tag_82:\n      pop\n      pop\n      pop\n      pop\n      mload(0x40)\n      returndatasize\n      not(0x1f)\n      0x1f\n      dup3\n      add\n      and\n      dup3\n      add\n      dup1\n      0x40\n      mstore\n      pop\n      dup2\n      add\n      swap1\n      tag_83\n      swap2\n      swap1\n      tag_84\n      jump\t// in\n    tag_83:\n        /* \"PriceConverter.sol\":502:550  (,int256 price,,,) = priceFeed.latestRoundData() */\n      pop\n      pop\n      pop\n      swap2\n      pop\n      pop\n        /* \"PriceConverter.sol\":689:693  1e10 */\n      0x02540be400\n        /* \"PriceConverter.sol\":681:686  price */\n      dup2\n        /* \"PriceConverter.sol\":681:693  price * 1e10 */\n      tag_85\n      swap2\n      swap1\n      tag_86\n      jump\t// in\n    tag_85:\n        /* \"PriceConverter.sol\":666:694  return uint256(price * 1e10) */\n      swap3\n      pop\n      pop\n      pop\n        /* \"PriceConverter.sol\":205:712  function getPrice() internal  view returns (uint256){... */\n      swap1\n      jump\t// out\n    tag_52:\n      dup3\n      dup1\n      sload\n      dup3\n      dup3\n      sstore\n      swap1\n      0x00\n      mstore\n      keccak256(0x00, 0x20)\n      swap1\n      dup2\n      add\n      swap3\n      dup3\n      iszero\n      tag_87\n      jumpi\n      swap2\n      0x20\n      mul\n      dup3\n      add\n    tag_88:\n      dup3\n      dup2\n      gt\n      iszero\n      tag_89\n      jumpi\n      dup3\n      mload\n      dup3\n      exp(0x0100, 0x00)\n      dup2\n      sload\n      dup2\n      0xffffffffffffffffffffffffffffffffffffffff\n      mul\n      not\n      and\n      swap1\n      dup4\n      0xffffffffffffffffffffffffffffffffffffffff\n      and\n      mul\n      or\n      swap1\n      sstore\n      pop\n      swap2\n      0x20\n      add\n      swap2\n      swap1\n      0x01\n      add\n      swap1\n      jump(tag_88)\n    tag_89:\n    tag_87:\n      pop\n      swap1\n      pop\n      tag_90\n      swap2\n      swap1\n      tag_91\n      jump\t// in\n    tag_90:\n      pop\n      swap1\n      jump\t// out\n    tag_91:\n    tag_92:\n      dup1\n      dup3\n      gt\n      iszero\n      tag_93\n      jumpi\n      0x00\n      dup2\n      0x00\n      swap1\n      sstore\n      pop\n      0x01\n      add\n      jump(tag_92)\n    tag_93:\n      pop\n      swap1\n      jump\t// out\n        /* \"#utility.yul\":7:84   */\n    tag_94:\n        /* \"#utility.yul\":44:51   */\n      0x00\n        /* \"#utility.yul\":73:78   */\n      dup2\n        /* \"#utility.yul\":62:78   */\n      swap1\n      pop\n        /* \"#utility.yul\":7:84   */\n      swap2\n      swap1\n      pop\n      jump\t// out\n        /* \"#utility.yul\":90:208   */\n    tag_95:\n        /* \"#utility.yul\":177:201   */\n      tag_128\n        /* \"#utility.yul\":195:200   */\n      dup2\n        /* \"#utility.yul\":177:201   */\n      tag_94\n      jump\t// in\n    tag_128:\n        /* \"#utility.yul\":172:175   */\n      dup3\n        /* \"#utility.yul\":165:202   */\n      mstore\n        /* \"#utility.yul\":90:208   */\n      pop\n      pop\n      jump\t// out\n        /* \"#utility.yul\":214:436   */\n    tag_12:\n        /* \"#utility.yul\":307:311   */\n      0x00\n        /* \"#utility.yul\":345:347   */\n      0x20\n        /* \"#utility.yul\":334:343   */\n      dup3\n        /* \"#utility.yul\":330:348   */\n      add\n        /* \"#utility.yul\":322:348   */\n      swap1\n      pop\n        /* \"#utility.yul\":358:429   */\n      tag_130\n        /* \"#utility.yul\":426:427   */\n      0x00\n        /* \"#utility.yul\":415:424   */\n      dup4\n        /* \"#utility.yul\":411:428   */\n      add\n        /* \"#utility.yul\":402:408   */\n      dup5\n        /* \"#utility.yul\":358:429   */\n      tag_95\n      jump\t// in\n    tag_130:\n        /* \"#utility.yul\":214:436   */\n      swap3\n      swap2\n      pop\n      pop\n      jump\t// out\n        /* \"#utility.yul\":523:640   */\n    tag_97:\n        /* \"#utility.yul\":632:633   */\n      0x00\n        /* \"#utility.yul\":629:630   */\n      0x00\n        /* \"#utility.yul\":622:634   */\n      revert\n        /* \"#utility.yul\":769:895   */\n    tag_99:\n        /* \"#utility.yul\":806:813   */\n      0x00\n        /* \"#utility.yul\":846:888   */\n      0xffffffffffffffffffffffffffffffffffffffff\n        /* \"#utility.yul\":839:844   */\n      dup3\n        /* \"#utility.yul\":835:889   */\n      and\n        /* \"#utility.yul\":824:889   */\n      swap1\n      pop\n        /* \"#utility.yul\":769:895   */\n      swap2\n      swap1\n      pop\n      jump\t// out\n        /* \"#utility.yul\":901:997   */\n    tag_100:\n        /* \"#utility.yul\":938:945   */\n      0x00\n        /* \"#utility.yul\":967:991   */\n      tag_136\n        /* \"#utility.yul\":985:990   */\n      dup3\n        /* \"#utility.yul\":967:991   */\n      tag_99\n      jump\t// in\n    tag_136:\n        /* \"#utility.yul\":956:991   */\n      swap1\n      pop\n        /* \"#utility.yul\":901:997   */\n      swap2\n      swap1\n      pop\n      jump\t// out\n        /* \"#utility.yul\":1003:1125   */\n    tag_101:\n        /* \"#utility.yul\":1076:1100   */\n      tag_138\n        /* \"#utility.yul\":1094:1099   */\n      dup2\n        /* \"#utility.yul\":1076:1100   */\n      tag_100\n      jump\t// in\n    tag_138:\n        /* \"#utility.yul\":1069:1074   */\n      dup2\n        /* \"#utility.yul\":1066:1101   */\n      eq\n        /* \"#utility.yul\":1056:1119   */\n      tag_139\n      jumpi\n        /* \"#utility.yul\":1115:1116   */\n      0x00\n        /* \"#utility.yul\":1112:1113   */\n      0x00\n        /* \"#utility.yul\":1105:1117   */\n      revert\n        /* \"#utility.yul\":1056:1119   */\n    tag_139:\n        /* \"#utility.yul\":1003:1125   */\n      pop\n      jump\t// out\n        /* \"#utility.yul\":1131:1270   */\n    tag_102:\n        /* \"#utility.yul\":1177:1182   */\n      0x00\n        /* \"#utility.yul\":1215:1221   */\n      dup2\n        /* \"#utility.yul\":1202:1222   */\n      calldataload\n        /* \"#utility.yul\":1193:1222   */\n      swap1\n      pop\n        /* \"#utility.yul\":1231:1264   */\n      tag_141\n        /* \"#utility.yul\":1258:1263   */\n      dup2\n        /* \"#utility.yul\":1231:1264   */\n      tag_101\n      jump\t// in\n    tag_141:\n        /* \"#utility.yul\":1131:1270   */\n      swap3\n      swap2\n      pop\n      pop\n      jump\t// out\n        /* \"#utility.yul\":1276:1605   */\n    tag_19:\n        /* \"#utility.yul\":1335:1341   */\n      0x00\n        /* \"#utility.yul\":1384:1386   */\n      0x20\n        /* \"#utility.yul\":1372:1381   */\n      dup3\n        /* \"#utility.yul\":1363:1370   */\n      dup5\n        /* \"#utility.yul\":1359:1382   */\n      sub\n        /* \"#utility.yul\":1355:1387   */\n      slt\n        /* \"#utility.yul\":1352:1471   */\n      iszero\n      tag_143\n      jumpi\n        /* \"#utility.yul\":1390:1469   */\n      tag_144\n      tag_97\n      jump\t// in\n    tag_144:\n        /* \"#utility.yul\":1352:1471   */\n    tag_143:\n        /* \"#utility.yul\":1510:1511   */\n      0x00\n        /* \"#utility.yul\":1535:1588   */\n      tag_145\n        /* \"#utility.yul\":1580:1587   */\n      dup5\n        /* \"#utility.yul\":1571:1577   */\n      dup3\n        /* \"#utility.yul\":1560:1569   */\n      dup6\n        /* \"#utility.yul\":1556:1578   */\n      add\n        /* \"#utility.yul\":1535:1588   */\n      tag_102\n      jump\t// in\n    tag_145:\n        /* \"#utility.yul\":1525:1588   */\n      swap2\n      pop\n        /* \"#utility.yul\":1481:1598   */\n      pop\n        /* \"#utility.yul\":1276:1605   */\n      swap3\n      swap2\n      pop\n      pop\n      jump\t// out\n        /* \"#utility.yul\":1611:1729   */\n    tag_103:\n        /* \"#utility.yul\":1698:1722   */\n      tag_147\n        /* \"#utility.yul\":1716:1721   */\n      dup2\n        /* \"#utility.yul\":1698:1722   */\n      tag_100\n      jump\t// in\n    tag_147:\n        /* \"#utility.yul\":1693:1696   */\n      dup3\n        /* \"#utility.yul\":1686:1723   */\n      mstore\n        /* \"#utility.yul\":1611:1729   */\n      pop\n      pop\n      jump\t// out\n        /* \"#utility.yul\":1735:1957   */\n    tag_26:\n        /* \"#utility.yul\":1828:1832   */\n      0x00\n        /* \"#utility.yul\":1866:1868   */\n      0x20\n        /* \"#utility.yul\":1855:1864   */\n      dup3\n        /* \"#utility.yul\":1851:1869   */\n      add\n        /* \"#utility.yul\":1843:1869   */\n      swap1\n      pop\n        /* \"#utility.yul\":1879:1950   */\n      tag_149\n        /* \"#utility.yul\":1947:1948   */\n      0x00\n        /* \"#utility.yul\":1936:1945   */\n      dup4\n        /* \"#utility.yul\":1932:1949   */\n      add\n        /* \"#utility.yul\":1923:1929   */\n      dup5\n        /* \"#utility.yul\":1879:1950   */\n      tag_103\n      jump\t// in\n    tag_149:\n        /* \"#utility.yul\":1735:1957   */\n      swap3\n      swap2\n      pop\n      pop\n      jump\t// out\n        /* \"#utility.yul\":1963:2085   */\n    tag_104:\n        /* \"#utility.yul\":2036:2060   */\n      tag_151\n        /* \"#utility.yul\":2054:2059   */\n      dup2\n        /* \"#utility.yul\":2036:2060   */\n      tag_94\n      jump\t// in\n    tag_151:\n        /* \"#utility.yul\":2029:2034   */\n      dup2\n        /* \"#utility.yul\":2026:2061   */\n      eq\n        /* \"#utility.yul\":2016:2079   */\n      tag_152\n      jumpi\n        /* \"#utility.yul\":2075:2076   */\n      0x00\n        /* \"#utility.yul\":2072:2073   */\n      0x00\n        /* \"#utility.yul\":2065:2077   */\n      revert\n        /* \"#utility.yul\":2016:2079   */\n    tag_152:\n        /* \"#utility.yul\":1963:2085   */\n      pop\n      jump\t// out\n        /* \"#utility.yul\":2091:2230   */\n    tag_105:\n        /* \"#utility.yul\":2137:2142   */\n      0x00\n        /* \"#utility.yul\":2175:2181   */\n      dup2\n        /* \"#utility.yul\":2162:2182   */\n      calldataload\n        /* \"#utility.yul\":2153:2182   */\n      swap1\n      pop\n        /* \"#utility.yul\":2191:2224   */\n      tag_154\n        /* \"#utility.yul\":2218:2223   */\n      dup2\n        /* \"#utility.yul\":2191:2224   */\n      tag_104\n      jump\t// in\n    tag_154:\n        /* \"#utility.yul\":2091:2230   */\n      swap3\n      swap2\n      pop\n      pop\n      jump\t// out\n        /* \"#utility.yul\":2236:2565   */\n    tag_32:\n        /* \"#utility.yul\":2295:2301   */\n      0x00\n        /* \"#utility.yul\":2344:2346   */\n      0x20\n        /* \"#utility.yul\":2332:2341   */\n      dup3\n        /* \"#utility.yul\":2323:2330   */\n      dup5\n        /* \"#utility.yul\":2319:2342   */\n      sub\n        /* \"#utility.yul\":2315:2347   */\n      slt\n        /* \"#utility.yul\":2312:2431   */\n      iszero\n      tag_156\n      jumpi\n        /* \"#utility.yul\":2350:2429   */\n      tag_157\n      tag_97\n      jump\t// in\n    tag_157:\n        /* \"#utility.yul\":2312:2431   */\n    tag_156:\n        /* \"#utility.yul\":2470:2471   */\n      0x00\n        /* \"#utility.yul\":2495:2548   */\n      tag_158\n        /* \"#utility.yul\":2540:2547   */\n      dup5\n        /* \"#utility.yul\":2531:2537   */\n      dup3\n        /* \"#utility.yul\":2520:2529   */\n      dup6\n        /* \"#utility.yul\":2516:2538   */\n      add\n        /* \"#utility.yul\":2495:2548   */\n      tag_105\n      jump\t// in\n    tag_158:\n        /* \"#utility.yul\":2485:2548   */\n      swap2\n      pop\n        /* \"#utility.yul\":2441:2558   */\n      pop\n        /* \"#utility.yul\":2236:2565   */\n      swap3\n      swap2\n      pop\n      pop\n      jump\t// out\n        /* \"#utility.yul\":2571:2740   */\n    tag_106:\n        /* \"#utility.yul\":2655:2666   */\n      0x00\n        /* \"#utility.yul\":2689:2695   */\n      dup3\n        /* \"#utility.yul\":2684:2687   */\n      dup3\n        /* \"#utility.yul\":2677:2696   */\n      mstore\n        /* \"#utility.yul\":2729:2733   */\n      0x20\n        /* \"#utility.yul\":2724:2727   */\n      dup3\n        /* \"#utility.yul\":2720:2734   */\n      add\n        /* \"#utility.yul\":2705:2734   */\n      swap1\n      pop\n        /* \"#utility.yul\":2571:2740   */\n      swap3\n      swap2\n      pop\n      pop\n      jump\t// out\n        /* \"#utility.yul\":2746:2911   */\n    tag_107:\n        /* \"#utility.yul\":2886:2903   */\n      0x4e6f7420617574686f72697a6564210000000000000000000000000000000000\n        /* \"#utility.yul\":2882:2883   */\n      0x00\n        /* \"#utility.yul\":2874:2880   */\n      dup3\n        /* \"#utility.yul\":2870:2884   */\n      add\n        /* \"#utility.yul\":2863:2904   */\n      mstore\n        /* \"#utility.yul\":2746:2911   */\n      pop\n      jump\t// out\n        /* \"#utility.yul\":2917:3283   */\n    tag_108:\n        /* \"#utility.yul\":3059:3062   */\n      0x00\n        /* \"#utility.yul\":3080:3147   */\n      tag_162\n        /* \"#utility.yul\":3144:3146   */\n      0x0f\n        /* \"#utility.yul\":3139:3142   */\n      dup4\n        /* \"#utility.yul\":3080:3147   */\n      tag_106\n      jump\t// in\n    tag_162:\n        /* \"#utility.yul\":3073:3147   */\n      swap2\n      pop\n        /* \"#utility.yul\":3156:3249   */\n      tag_163\n        /* \"#utility.yul\":3245:3248   */\n      dup3\n        /* \"#utility.yul\":3156:3249   */\n      tag_107\n      jump\t// in\n    tag_163:\n        /* \"#utility.yul\":3274:3276   */\n      0x20\n        /* \"#utility.yul\":3269:3272   */\n      dup3\n        /* \"#utility.yul\":3265:3277   */\n      add\n        /* \"#utility.yul\":3258:3277   */\n      swap1\n      pop\n        /* \"#utility.yul\":2917:3283   */\n      swap2\n      swap1\n      pop\n      jump\t// out\n        /* \"#utility.yul\":3289:3708   */\n    tag_38:\n        /* \"#utility.yul\":3455:3459   */\n      0x00\n        /* \"#utility.yul\":3493:3495   */\n      0x20\n        /* \"#utility.yul\":3482:3491   */\n      dup3\n        /* \"#utility.yul\":3478:3496   */\n      add\n        /* \"#utility.yul\":3470:3496   */\n      swap1\n      pop\n        /* \"#utility.yul\":3542:3551   */\n      dup2\n        /* \"#utility.yul\":3536:3540   */\n      dup2\n        /* \"#utility.yul\":3532:3552   */\n      sub\n        /* \"#utility.yul\":3528:3529   */\n      0x00\n        /* \"#utility.yul\":3517:3526   */\n      dup4\n        /* \"#utility.yul\":3513:3530   */\n      add\n        /* \"#utility.yul\":3506:3553   */\n      mstore\n        /* \"#utility.yul\":3570:3701   */\n      tag_165\n        /* \"#utility.yul\":3696:3700   */\n      dup2\n        /* \"#utility.yul\":3570:3701   */\n      tag_108\n      jump\t// in\n    tag_165:\n        /* \"#utility.yul\":3562:3701   */\n      swap1\n      pop\n        /* \"#utility.yul\":3289:3708   */\n      swap2\n      swap1\n      pop\n      jump\t// out\n        /* \"#utility.yul\":3714:3894   */\n    tag_45:\n        /* \"#utility.yul\":3762:3839   */\n      0x4e487b7100000000000000000000000000000000000000000000000000000000\n        /* \"#utility.yul\":3759:3760   */\n      0x00\n        /* \"#utility.yul\":3752:3840   */\n      mstore\n        /* \"#utility.yul\":3859:3863   */\n      0x32\n        /* \"#utility.yul\":3856:3857   */\n      0x04\n        /* \"#utility.yul\":3849:3864   */\n      mstore\n        /* \"#utility.yul\":3883:3887   */\n      0x24\n        /* \"#utility.yul\":3880:3881   */\n      0x00\n        /* \"#utility.yul\":3873:3888   */\n      revert\n        /* \"#utility.yul\":3900:4080   */\n    tag_49:\n        /* \"#utility.yul\":3948:4025   */\n      0x4e487b7100000000000000000000000000000000000000000000000000000000\n        /* \"#utility.yul\":3945:3946   */\n      0x00\n        /* \"#utility.yul\":3938:4026   */\n      mstore\n        /* \"#utility.yul\":4045:4049   */\n      0x41\n        /* \"#utility.yul\":4042:4043   */\n      0x04\n        /* \"#utility.yul\":4035:4050   */\n      mstore\n        /* \"#utility.yul\":4069:4073   */\n      0x24\n        /* \"#utility.yul\":4066:4067   */\n      0x00\n        /* \"#utility.yul\":4059:4074   */\n      revert\n        /* \"#utility.yul\":4086:4233   */\n    tag_109:\n        /* \"#utility.yul\":4187:4198   */\n      0x00\n        /* \"#utility.yul\":4224:4227   */\n      dup2\n        /* \"#utility.yul\":4209:4227   */\n      swap1\n      pop\n        /* \"#utility.yul\":4086:4233   */\n      swap3\n      swap2\n      pop\n      pop\n      jump\t// out\n        /* \"#utility.yul\":4239:4353   */\n    tag_110:\n      pop\n      jump\t// out\n        /* \"#utility.yul\":4359:4757   */\n    tag_111:\n        /* \"#utility.yul\":4518:4521   */\n      0x00\n        /* \"#utility.yul\":4539:4622   */\n      tag_171\n        /* \"#utility.yul\":4620:4621   */\n      0x00\n        /* \"#utility.yul\":4615:4618   */\n      dup4\n        /* \"#utility.yul\":4539:4622   */\n      tag_109\n      jump\t// in\n    tag_171:\n        /* \"#utility.yul\":4532:4622   */\n      swap2\n      pop\n        /* \"#utility.yul\":4631:4724   */\n      tag_172\n        /* \"#utility.yul\":4720:4723   */\n      dup3\n        /* \"#utility.yul\":4631:4724   */\n      tag_110\n      jump\t// in\n    tag_172:\n        /* \"#utility.yul\":4749:4750   */\n      0x00\n        /* \"#utility.yul\":4744:4747   */\n      dup3\n        /* \"#utility.yul\":4740:4751   */\n      add\n        /* \"#utility.yul\":4733:4751   */\n      swap1\n      pop\n        /* \"#utility.yul\":4359:4757   */\n      swap2\n      swap1\n      pop\n      jump\t// out\n        /* \"#utility.yul\":4763:5142   */\n    tag_54:\n        /* \"#utility.yul\":4947:4950   */\n      0x00\n        /* \"#utility.yul\":4969:5116   */\n      tag_174\n        /* \"#utility.yul\":5112:5115   */\n      dup3\n        /* \"#utility.yul\":4969:5116   */\n      tag_111\n      jump\t// in\n    tag_174:\n        /* \"#utility.yul\":4962:5116   */\n      swap2\n      pop\n        /* \"#utility.yul\":5133:5136   */\n      dup2\n        /* \"#utility.yul\":5126:5136   */\n      swap1\n      pop\n        /* \"#utility.yul\":4763:5142   */\n      swap2\n      swap1\n      pop\n      jump\t// out\n        /* \"#utility.yul\":5148:5309   */\n    tag_112:\n        /* \"#utility.yul\":5288:5301   */\n      0x43616c6c206661696c6564000000000000000000000000000000000000000000\n        /* \"#utility.yul\":5284:5285   */\n      0x00\n        /* \"#utility.yul\":5276:5282   */\n      dup3\n        /* \"#utility.yul\":5272:5286   */\n      add\n        /* \"#utility.yul\":5265:5302   */\n      mstore\n        /* \"#utility.yul\":5148:5309   */\n      pop\n      jump\t// out\n        /* \"#utility.yul\":5315:5681   */\n    tag_113:\n        /* \"#utility.yul\":5457:5460   */\n      0x00\n        /* \"#utility.yul\":5478:5545   */\n      tag_177\n        /* \"#utility.yul\":5542:5544   */\n      0x0b\n        /* \"#utility.yul\":5537:5540   */\n      dup4\n        /* \"#utility.yul\":5478:5545   */\n      tag_106\n      jump\t// in\n    tag_177:\n        /* \"#utility.yul\":5471:5545   */\n      swap2\n      pop\n        /* \"#utility.yul\":5554:5647   */\n      tag_178\n        /* \"#utility.yul\":5643:5646   */\n      dup3\n        /* \"#utility.yul\":5554:5647   */\n      tag_112\n      jump\t// in\n    tag_178:\n        /* \"#utility.yul\":5672:5674   */\n      0x20\n        /* \"#utility.yul\":5667:5670   */\n      dup3\n        /* \"#utility.yul\":5663:5675   */\n      add\n        /* \"#utility.yul\":5656:5675   */\n      swap1\n      pop\n        /* \"#utility.yul\":5315:5681   */\n      swap2\n      swap1\n      pop\n      jump\t// out\n        /* \"#utility.yul\":5687:6106   */\n    tag_60:\n        /* \"#utility.yul\":5853:5857   */\n      0x00\n        /* \"#utility.yul\":5891:5893   */\n      0x20\n        /* \"#utility.yul\":5880:5889   */\n      dup3\n        /* \"#utility.yul\":5876:5894   */\n      add\n        /* \"#utility.yul\":5868:5894   */\n      swap1\n      pop\n        /* \"#utility.yul\":5940:5949   */\n      dup2\n        /* \"#utility.yul\":5934:5938   */\n      dup2\n        /* \"#utility.yul\":5930:5950   */\n      sub\n        /* \"#utility.yul\":5926:5927   */\n      0x00\n        /* \"#utility.yul\":5915:5924   */\n      dup4\n        /* \"#utility.yul\":5911:5928   */\n      add\n        /* \"#utility.yul\":5904:5951   */\n      mstore\n        /* \"#utility.yul\":5968:6099   */\n      tag_180\n        /* \"#utility.yul\":6094:6098   */\n      dup2\n        /* \"#utility.yul\":5968:6099   */\n      tag_113\n      jump\t// in\n    tag_180:\n        /* \"#utility.yul\":5960:6099   */\n      swap1\n      pop\n        /* \"#utility.yul\":5687:6106   */\n      swap2\n      swap1\n      pop\n      jump\t// out\n        /* \"#utility.yul\":6112:6285   */\n    tag_114:\n        /* \"#utility.yul\":6252:6277   */\n      0x646964206e6f742073656e6420656e6f75676820455448000000000000000000\n        /* \"#utility.yul\":6248:6249   */\n      0x00\n        /* \"#utility.yul\":6240:6246   */\n      dup3\n        /* \"#utility.yul\":6236:6250   */\n      add\n        /* \"#utility.yul\":6229:6278   */\n      mstore\n        /* \"#utility.yul\":6112:6285   */\n      pop\n      jump\t// out\n        /* \"#utility.yul\":6291:6657   */\n    tag_115:\n        /* \"#utility.yul\":6433:6436   */\n      0x00\n        /* \"#utility.yul\":6454:6521   */\n      tag_183\n        /* \"#utility.yul\":6518:6520   */\n      0x17\n        /* \"#utility.yul\":6513:6516   */\n      dup4\n        /* \"#utility.yul\":6454:6521   */\n      tag_106\n      jump\t// in\n    tag_183:\n        /* \"#utility.yul\":6447:6521   */\n      swap2\n      pop\n        /* \"#utility.yul\":6530:6623   */\n      tag_184\n        /* \"#utility.yul\":6619:6622   */\n      dup3\n        /* \"#utility.yul\":6530:6623   */\n      tag_114\n      jump\t// in\n    tag_184:\n        /* \"#utility.yul\":6648:6650   */\n      0x20\n        /* \"#utility.yul\":6643:6646   */\n      dup3\n        /* \"#utility.yul\":6639:6651   */\n      add\n        /* \"#utility.yul\":6632:6651   */\n      swap1\n      pop\n        /* \"#utility.yul\":6291:6657   */\n      swap2\n      swap1\n      pop\n      jump\t// out\n        /* \"#utility.yul\":6663:7082   */\n    tag_67:\n        /* \"#utility.yul\":6829:6833   */\n      0x00\n        /* \"#utility.yul\":6867:6869   */\n      0x20\n        /* \"#utility.yul\":6856:6865   */\n      dup3\n        /* \"#utility.yul\":6852:6870   */\n      add\n        /* \"#utility.yul\":6844:6870   */\n      swap1\n      pop\n        /* \"#utility.yul\":6916:6925   */\n      dup2\n        /* \"#utility.yul\":6910:6914   */\n      dup2\n        /* \"#utility.yul\":6906:6926   */\n      sub\n        /* \"#utility.yul\":6902:6903   */\n      0x00\n        /* \"#utility.yul\":6891:6900   */\n      dup4\n        /* \"#utility.yul\":6887:6904   */\n      add\n        /* \"#utility.yul\":6880:6927   */\n      mstore\n        /* \"#utility.yul\":6944:7075   */\n      tag_186\n        /* \"#utility.yul\":7070:7074   */\n      dup2\n        /* \"#utility.yul\":6944:7075   */\n      tag_115\n      jump\t// in\n    tag_186:\n        /* \"#utility.yul\":6936:7075   */\n      swap1\n      pop\n        /* \"#utility.yul\":6663:7082   */\n      swap2\n      swap1\n      pop\n      jump\t// out\n        /* \"#utility.yul\":7088:7268   */\n    tag_116:\n        /* \"#utility.yul\":7136:7213   */\n      0x4e487b7100000000000000000000000000000000000000000000000000000000\n        /* \"#utility.yul\":7133:7134   */\n      0x00\n        /* \"#utility.yul\":7126:7214   */\n      mstore\n        /* \"#utility.yul\":7233:7237   */\n      0x11\n        /* \"#utility.yul\":7230:7231   */\n      0x04\n        /* \"#utility.yul\":7223:7238   */\n      mstore\n        /* \"#utility.yul\":7257:7261   */\n      0x24\n        /* \"#utility.yul\":7254:7255   */\n      0x00\n        /* \"#utility.yul\":7247:7262   */\n      revert\n        /* \"#utility.yul\":7274:7465   */\n    tag_70:\n        /* \"#utility.yul\":7314:7317   */\n      0x00\n        /* \"#utility.yul\":7333:7353   */\n      tag_189\n        /* \"#utility.yul\":7351:7352   */\n      dup3\n        /* \"#utility.yul\":7333:7353   */\n      tag_94\n      jump\t// in\n    tag_189:\n        /* \"#utility.yul\":7328:7353   */\n      swap2\n      pop\n        /* \"#utility.yul\":7367:7387   */\n      tag_190\n        /* \"#utility.yul\":7385:7386   */\n      dup4\n        /* \"#utility.yul\":7367:7387   */\n      tag_94\n      jump\t// in\n    tag_190:\n        /* \"#utility.yul\":7362:7387   */\n      swap3\n      pop\n        /* \"#utility.yul\":7410:7411   */\n      dup3\n        /* \"#utility.yul\":7407:7408   */\n      dup3\n        /* \"#utility.yul\":7403:7412   */\n      add\n        /* \"#utility.yul\":7396:7412   */\n      swap1\n      pop\n        /* \"#utility.yul\":7431:7434   */\n      dup1\n        /* \"#utility.yul\":7428:7429   */\n      dup3\n        /* \"#utility.yul\":7425:7435   */\n      gt\n        /* \"#utility.yul\":7422:7458   */\n      iszero\n      tag_191\n      jumpi\n        /* \"#utility.yul\":7438:7456   */\n      tag_192\n      tag_116\n      jump\t// in\n    tag_192:\n        /* \"#utility.yul\":7422:7458   */\n    tag_191:\n        /* \"#utility.yul\":7274:7465   */\n      swap3\n      swap2\n      pop\n      pop\n      jump\t// out\n        /* \"#utility.yul\":7471:7881   */\n    tag_77:\n        /* \"#utility.yul\":7511:7518   */\n      0x00\n        /* \"#utility.yul\":7534:7554   */\n      tag_194\n        /* \"#utility.yul\":7552:7553   */\n      dup3\n        /* \"#utility.yul\":7534:7554   */\n      tag_94\n      jump\t// in\n    tag_194:\n        /* \"#utility.yul\":7529:7554   */\n      swap2\n      pop\n        /* \"#utility.yul\":7568:7588   */\n      tag_195\n        /* \"#utility.yul\":7586:7587   */\n      dup4\n        /* \"#utility.yul\":7568:7588   */\n      tag_94\n      jump\t// in\n    tag_195:\n        /* \"#utility.yul\":7563:7588   */\n      swap3\n      pop\n        /* \"#utility.yul\":7623:7624   */\n      dup3\n        /* \"#utility.yul\":7620:7621   */\n      dup3\n        /* \"#utility.yul\":7616:7625   */\n      mul\n        /* \"#utility.yul\":7645:7675   */\n      tag_196\n        /* \"#utility.yul\":7663:7674   */\n      dup2\n        /* \"#utility.yul\":7645:7675   */\n      tag_94\n      jump\t// in\n    tag_196:\n        /* \"#utility.yul\":7634:7675   */\n      swap2\n      pop\n        /* \"#utility.yul\":7824:7825   */\n      dup3\n        /* \"#utility.yul\":7815:7822   */\n      dup3\n        /* \"#utility.yul\":7811:7826   */\n      div\n        /* \"#utility.yul\":7808:7809   */\n      dup5\n        /* \"#utility.yul\":7805:7827   */\n      eq\n        /* \"#utility.yul\":7785:7786   */\n      dup4\n        /* \"#utility.yul\":7778:7787   */\n      iszero\n        /* \"#utility.yul\":7758:7841   */\n      or\n        /* \"#utility.yul\":7735:7874   */\n      tag_197\n      jumpi\n        /* \"#utility.yul\":7854:7872   */\n      tag_198\n      tag_116\n      jump\t// in\n    tag_198:\n        /* \"#utility.yul\":7735:7874   */\n    tag_197:\n        /* \"#utility.yul\":7519:7881   */\n      pop\n        /* \"#utility.yul\":7471:7881   */\n      swap3\n      swap2\n      pop\n      pop\n      jump\t// out\n        /* \"#utility.yul\":7887:8067   */\n    tag_117:\n        /* \"#utility.yul\":7935:8012   */\n      0x4e487b7100000000000000000000000000000000000000000000000000000000\n        /* \"#utility.yul\":7932:7933   */\n      0x00\n        /* \"#utility.yul\":7925:8013   */\n      mstore\n        /* \"#utility.yul\":8032:8036   */\n      0x12\n        /* \"#utility.yul\":8029:8030   */\n      0x04\n        /* \"#utility.yul\":8022:8037   */\n      mstore\n        /* \"#utility.yul\":8056:8060   */\n      0x24\n        /* \"#utility.yul\":8053:8054   */\n      0x00\n        /* \"#utility.yul\":8046:8061   */\n      revert\n        /* \"#utility.yul\":8073:8258   */\n    tag_79:\n        /* \"#utility.yul\":8113:8114   */\n      0x00\n        /* \"#utility.yul\":8130:8150   */\n      tag_201\n        /* \"#utility.yul\":8148:8149   */\n      dup3\n        /* \"#utility.yul\":8130:8150   */\n      tag_94\n      jump\t// in\n    tag_201:\n        /* \"#utility.yul\":8125:8150   */\n      swap2\n      pop\n        /* \"#utility.yul\":8164:8184   */\n      tag_202\n        /* \"#utility.yul\":8182:8183   */\n      dup4\n        /* \"#utility.yul\":8164:8184   */\n      tag_94\n      jump\t// in\n    tag_202:\n        /* \"#utility.yul\":8159:8184   */\n      swap3\n      pop\n        /* \"#utility.yul\":8203:8204   */\n      dup3\n        /* \"#utility.yul\":8193:8228   */\n      tag_203\n      jumpi\n        /* \"#utility.yul\":8208:8226   */\n      tag_204\n      tag_117\n      jump\t// in\n    tag_204:\n        /* \"#utility.yul\":8193:8228   */\n    tag_203:\n        /* \"#utility.yul\":8250:8251   */\n      dup3\n        /* \"#utility.yul\":8247:8248   */\n      dup3\n        /* \"#utility.yul\":8243:8252   */\n      div\n        /* \"#utility.yul\":8238:8252   */\n      swap1\n      pop\n        /* \"#utility.yul\":8073:8258   */\n      swap3\n      swap2\n      pop\n      pop\n      jump\t// out\n        /* \"#utility.yul\":8264:8369   */\n    tag_118:\n        /* \"#utility.yul\":8300:8307   */\n      0x00\n        /* \"#utility.yul\":8340:8362   */\n      0xffffffffffffffffffff\n        /* \"#utility.yul\":8333:8338   */\n      dup3\n        /* \"#utility.yul\":8329:8363   */\n      and\n        /* \"#utility.yul\":8318:8363   */\n      swap1\n      pop\n        /* \"#utility.yul\":8264:8369   */\n      swap2\n      swap1\n      pop\n      jump\t// out\n        /* \"#utility.yul\":8375:8495   */\n    tag_119:\n        /* \"#utility.yul\":8447:8470   */\n      tag_207\n        /* \"#utility.yul\":8464:8469   */\n      dup2\n        /* \"#utility.yul\":8447:8470   */\n      tag_118\n      jump\t// in\n    tag_207:\n        /* \"#utility.yul\":8440:8445   */\n      dup2\n        /* \"#utility.yul\":8437:8471   */\n      eq\n        /* \"#utility.yul\":8427:8489   */\n      tag_208\n      jumpi\n        /* \"#utility.yul\":8485:8486   */\n      0x00\n        /* \"#utility.yul\":8482:8483   */\n      0x00\n        /* \"#utility.yul\":8475:8487   */\n      revert\n        /* \"#utility.yul\":8427:8489   */\n    tag_208:\n        /* \"#utility.yul\":8375:8495   */\n      pop\n      jump\t// out\n        /* \"#utility.yul\":8501:8642   */\n    tag_120:\n        /* \"#utility.yul\":8557:8562   */\n      0x00\n        /* \"#utility.yul\":8588:8594   */\n      dup2\n        /* \"#utility.yul\":8582:8595   */\n      mload\n        /* \"#utility.yul\":8573:8595   */\n      swap1\n      pop\n        /* \"#utility.yul\":8604:8636   */\n      tag_210\n        /* \"#utility.yul\":8630:8635   */\n      dup2\n        /* \"#utility.yul\":8604:8636   */\n      tag_119\n      jump\t// in\n    tag_210:\n        /* \"#utility.yul\":8501:8642   */\n      swap3\n      swap2\n      pop\n      pop\n      jump\t// out\n        /* \"#utility.yul\":8648:8724   */\n    tag_121:\n        /* \"#utility.yul\":8684:8691   */\n      0x00\n        /* \"#utility.yul\":8713:8718   */\n      dup2\n        /* \"#utility.yul\":8702:8718   */\n      swap1\n      pop\n        /* \"#utility.yul\":8648:8724   */\n      swap2\n      swap1\n      pop\n      jump\t// out\n        /* \"#utility.yul\":8730:8850   */\n    tag_122:\n        /* \"#utility.yul\":8802:8825   */\n      tag_213\n        /* \"#utility.yul\":8819:8824   */\n      dup2\n        /* \"#utility.yul\":8802:8825   */\n      tag_121\n      jump\t// in\n    tag_213:\n        /* \"#utility.yul\":8795:8800   */\n      dup2\n        /* \"#utility.yul\":8792:8826   */\n      eq\n        /* \"#utility.yul\":8782:8844   */\n      tag_214\n      jumpi\n        /* \"#utility.yul\":8840:8841   */\n      0x00\n        /* \"#utility.yul\":8837:8838   */\n      0x00\n        /* \"#utility.yul\":8830:8842   */\n      revert\n        /* \"#utility.yul\":8782:8844   */\n    tag_214:\n        /* \"#utility.yul\":8730:8850   */\n      pop\n      jump\t// out\n        /* \"#utility.yul\":8856:8997   */\n    tag_123:\n        /* \"#utility.yul\":8912:8917   */\n      0x00\n        /* \"#utility.yul\":8943:8949   */\n      dup2\n        /* \"#utility.yul\":8937:8950   */\n      mload\n        /* \"#utility.yul\":8928:8950   */\n      swap1\n      pop\n        /* \"#utility.yul\":8959:8991   */\n      tag_216\n        /* \"#utility.yul\":8985:8990   */\n      dup2\n        /* \"#utility.yul\":8959:8991   */\n      tag_122\n      jump\t// in\n    tag_216:\n        /* \"#utility.yul\":8856:8997   */\n      swap3\n      swap2\n      pop\n      pop\n      jump\t// out\n        /* \"#utility.yul\":9003:9146   */\n    tag_124:\n        /* \"#utility.yul\":9060:9065   */\n      0x00\n        /* \"#utility.yul\":9091:9097   */\n      dup2\n        /* \"#utility.yul\":9085:9098   */\n      mload\n        /* \"#utility.yul\":9076:9098   */\n      swap1\n      pop\n        /* \"#utility.yul\":9107:9140   */\n      tag_218\n        /* \"#utility.yul\":9134:9139   */\n      dup2\n        /* \"#utility.yul\":9107:9140   */\n      tag_104\n      jump\t// in\n    tag_218:\n        /* \"#utility.yul\":9003:9146   */\n      swap3\n      swap2\n      pop\n      pop\n      jump\t// out\n        /* \"#utility.yul\":9152:10123   */\n    tag_84:\n        /* \"#utility.yul\":9255:9261   */\n      0x00\n        /* \"#utility.yul\":9263:9269   */\n      0x00\n        /* \"#utility.yul\":9271:9277   */\n      0x00\n        /* \"#utility.yul\":9279:9285   */\n      0x00\n        /* \"#utility.yul\":9287:9293   */\n      0x00\n        /* \"#utility.yul\":9336:9339   */\n      0xa0\n        /* \"#utility.yul\":9324:9333   */\n      dup7\n        /* \"#utility.yul\":9315:9322   */\n      dup9\n        /* \"#utility.yul\":9311:9334   */\n      sub\n        /* \"#utility.yul\":9307:9340   */\n      slt\n        /* \"#utility.yul\":9304:9424   */\n      iszero\n      tag_220\n      jumpi\n        /* \"#utility.yul\":9343:9422   */\n      tag_221\n      tag_97\n      jump\t// in\n    tag_221:\n        /* \"#utility.yul\":9304:9424   */\n    tag_220:\n        /* \"#utility.yul\":9463:9464   */\n      0x00\n        /* \"#utility.yul\":9488:9551   */\n      tag_222\n        /* \"#utility.yul\":9543:9550   */\n      dup9\n        /* \"#utility.yul\":9534:9540   */\n      dup3\n        /* \"#utility.yul\":9523:9532   */\n      dup10\n        /* \"#utility.yul\":9519:9541   */\n      add\n        /* \"#utility.yul\":9488:9551   */\n      tag_120\n      jump\t// in\n    tag_222:\n        /* \"#utility.yul\":9478:9551   */\n      swap6\n      pop\n        /* \"#utility.yul\":9434:9561   */\n      pop\n        /* \"#utility.yul\":9600:9602   */\n      0x20\n        /* \"#utility.yul\":9626:9689   */\n      tag_223\n        /* \"#utility.yul\":9681:9688   */\n      dup9\n        /* \"#utility.yul\":9672:9678   */\n      dup3\n        /* \"#utility.yul\":9661:9670   */\n      dup10\n        /* \"#utility.yul\":9657:9679   */\n      add\n        /* \"#utility.yul\":9626:9689   */\n      tag_123\n      jump\t// in\n    tag_223:\n        /* \"#utility.yul\":9616:9689   */\n      swap5\n      pop\n        /* \"#utility.yul\":9571:9699   */\n      pop\n        /* \"#utility.yul\":9738:9740   */\n      0x40\n        /* \"#utility.yul\":9764:9828   */\n      tag_224\n        /* \"#utility.yul\":9820:9827   */\n      dup9\n        /* \"#utility.yul\":9811:9817   */\n      dup3\n        /* \"#utility.yul\":9800:9809   */\n      dup10\n        /* \"#utility.yul\":9796:9818   */\n      add\n        /* \"#utility.yul\":9764:9828   */\n      tag_124\n      jump\t// in\n    tag_224:\n        /* \"#utility.yul\":9754:9828   */\n      swap4\n      pop\n        /* \"#utility.yul\":9709:9838   */\n      pop\n        /* \"#utility.yul\":9877:9879   */\n      0x60\n        /* \"#utility.yul\":9903:9967   */\n      tag_225\n        /* \"#utility.yul\":9959:9966   */\n      dup9\n        /* \"#utility.yul\":9950:9956   */\n      dup3\n        /* \"#utility.yul\":9939:9948   */\n      dup10\n        /* \"#utility.yul\":9935:9957   */\n      add\n        /* \"#utility.yul\":9903:9967   */\n      tag_124\n      jump\t// in\n    tag_225:\n        /* \"#utility.yul\":9893:9967   */\n      swap3\n      pop\n        /* \"#utility.yul\":9848:9977   */\n      pop\n        /* \"#utility.yul\":10016:10019   */\n      0x80\n        /* \"#utility.yul\":10043:10106   */\n      tag_226\n        /* \"#utility.yul\":10098:10105   */\n      dup9\n        /* \"#utility.yul\":10089:10095   */\n      dup3\n        /* \"#utility.yul\":10078:10087   */\n      dup10\n        /* \"#utility.yul\":10074:10096   */\n      add\n        /* \"#utility.yul\":10043:10106   */\n      tag_120\n      jump\t// in\n    tag_226:\n        /* \"#utility.yul\":10033:10106   */\n      swap2\n      pop\n        /* \"#utility.yul\":9987:10116   */\n      pop\n        /* \"#utility.yul\":9152:10123   */\n      swap3\n      swap6\n      pop\n      swap3\n      swap6\n      swap1\n      swap4\n      pop\n      jump\t// out\n        /* \"#utility.yul\":10129:10685   */\n    tag_86:\n        /* \"#utility.yul\":10168:10175   */\n      0x00\n        /* \"#utility.yul\":10191:10210   */\n      tag_228\n        /* \"#utility.yul\":10208:10209   */\n      dup3\n        /* \"#utility.yul\":10191:10210   */\n      tag_121\n      jump\t// in\n    tag_228:\n        /* \"#utility.yul\":10186:10210   */\n      swap2\n      pop\n        /* \"#utility.yul\":10224:10243   */\n      tag_229\n        /* \"#utility.yul\":10241:10242   */\n      dup4\n        /* \"#utility.yul\":10224:10243   */\n      tag_121\n      jump\t// in\n    tag_229:\n        /* \"#utility.yul\":10219:10243   */\n      swap3\n      pop\n        /* \"#utility.yul\":10278:10279   */\n      dup3\n        /* \"#utility.yul\":10275:10276   */\n      dup3\n        /* \"#utility.yul\":10271:10280   */\n      mul\n        /* \"#utility.yul\":10300:10329   */\n      tag_230\n        /* \"#utility.yul\":10317:10328   */\n      dup2\n        /* \"#utility.yul\":10300:10329   */\n      tag_121\n      jump\t// in\n    tag_230:\n        /* \"#utility.yul\":10289:10329   */\n      swap2\n      pop\n        /* \"#utility.yul\":10387:10453   */\n      0x8000000000000000000000000000000000000000000000000000000000000000\n        /* \"#utility.yul\":10384:10385   */\n      dup5\n        /* \"#utility.yul\":10381:10454   */\n      eq\n        /* \"#utility.yul\":10377:10378   */\n      0x00\n        /* \"#utility.yul\":10374:10375   */\n      dup5\n        /* \"#utility.yul\":10370:10379   */\n      slt\n        /* \"#utility.yul\":10366:10455   */\n      and\n        /* \"#utility.yul\":10363:10478   */\n      iszero\n      tag_231\n      jumpi\n        /* \"#utility.yul\":10458:10476   */\n      tag_232\n      tag_116\n      jump\t// in\n    tag_232:\n        /* \"#utility.yul\":10363:10478   */\n    tag_231:\n        /* \"#utility.yul\":10628:10629   */\n      dup3\n        /* \"#utility.yul\":10619:10626   */\n      dup3\n        /* \"#utility.yul\":10614:10630   */\n      sdiv\n        /* \"#utility.yul\":10611:10612   */\n      dup5\n        /* \"#utility.yul\":10608:10631   */\n      eq\n        /* \"#utility.yul\":10588:10589   */\n      dup4\n        /* \"#utility.yul\":10581:10590   */\n      iszero\n        /* \"#utility.yul\":10561:10645   */\n      or\n        /* \"#utility.yul\":10538:10678   */\n      tag_233\n      jumpi\n        /* \"#utility.yul\":10658:10676   */\n      tag_234\n      tag_116\n      jump\t// in\n    tag_234:\n        /* \"#utility.yul\":10538:10678   */\n    tag_233:\n        /* \"#utility.yul\":10176:10685   */\n      pop\n        /* \"#utility.yul\":10129:10685   */\n      swap3\n      swap2\n      pop\n      pop\n      jump\t// out\n\n    auxdata: 0xa2646970667358221220eb73487a9fb528210ceee5263388cb5a691cbbc095144e5bfe58bd0d35b74fa764736f6c634300081e0033\n}\n",
				"bytecode": {
					"linkReferences": {},
					"object": "6080604052674563918244f400005f553480156019575f5ffd5b503360035f6101000a81548173ffffffffffffffffffffffffffffffffffffffff021916908373ffffffffffffffffffffffffffffffffffffffff160217905550610c78806100675f395ff3fe608060405260043610610054575f3560e01c8063098de820146100585780633ccfd60b146100825780633e47d6f3146100985780638da5cb5b146100d4578063b60d4288146100fe578063dc0d3dff14610108575b5f5ffd5b348015610063575f5ffd5b5061006c610144565b60405161007991906106cf565b60405180910390f35b34801561008d575f5ffd5b50610096610149565b005b3480156100a3575f5ffd5b506100be60048036038101906100b99190610746565b610384565b6040516100cb91906106cf565b60405180910390f35b3480156100df575f5ffd5b506100e8610399565b6040516100f59190610780565b60405180910390f35b6101066103be565b005b348015610113575f5ffd5b5061012e600480360381019061012991906107c3565b610500565b60405161013b9190610780565b60405180910390f35b5f5481565b60035f9054906101000a900473ffffffffffffffffffffffffffffffffffffffff1673ffffffffffffffffffffffffffffffffffffffff163373ffffffffffffffffffffffffffffffffffffffff16146101d8576040517f08c379a00000000000000000000000000000000000000000000000000000000081526004016101cf90610848565b60405180910390fd5b5f5f90505b600180549050811015610279575f600182815481106101ff576101fe610866565b5b905f5260205f20015f9054906101000a900473ffffffffffffffffffffffffffffffffffffffff1690505f60025f8373ffffffffffffffffffffffffffffffffffffffff1673ffffffffffffffffffffffffffffffffffffffff1681526020019081526020015f20819055505080806001019150506101dd565b505f67ffffffffffffffff81111561029457610293610893565b5b6040519080825280602002602001820160405280156102c25781602001602082028036833780820191505090505b50600190805190602001906102d8929190610615565b505f3373ffffffffffffffffffffffffffffffffffffffff16476040516102fe906108ed565b5f6040518083038185875af1925050503d805f8114610338576040519150601f19603f3d011682016040523d82523d5f602084013e61033d565b606091505b5050905080610381576040517f08c379a00000000000000000000000000000000000000000000000000000000081526004016103789061094b565b60405180910390fd5b50565b6002602052805f5260405f205f915090505481565b60035f9054906101000a900473ffffffffffffffffffffffffffffffffffffffff1681565b6103c73461053b565b505f546103d33461053b565b1015610414576040517f08c379a000000000000000000000000000000000000000000000000000000000815260040161040b906109b3565b60405180910390fd5b600133908060018154018082558091505060019003905f5260205f20015f9091909190916101000a81548173ffffffffffffffffffffffffffffffffffffffff021916908373ffffffffffffffffffffffffffffffffffffffff1602179055503460025f3373ffffffffffffffffffffffffffffffffffffffff1673ffffffffffffffffffffffffffffffffffffffff1681526020019081526020015f20546104bd91906109fe565b60025f3373ffffffffffffffffffffffffffffffffffffffff1673ffffffffffffffffffffffffffffffffffffffff1681526020019081526020015f2081905550565b6001818154811061050f575f80fd5b905f5260205f20015f915054906101000a900473ffffffffffffffffffffffffffffffffffffffff1681565b5f5f610545610570565b90505f6402540be400848361055a9190610a31565b6105649190610a9f565b90508092505050919050565b5f5f73694aa1769357215de4fac081bf1f309adc32530690505f8173ffffffffffffffffffffffffffffffffffffffff1663feaf968c6040518163ffffffff1660e01b815260040160a060405180830381865afa1580156105d3573d5f5f3e3d5ffd5b505050506040513d601f19601f820116820180604052508101906105f79190610b55565b5050509150506402540be4008161060e9190610bcc565b9250505090565b828054828255905f5260205f2090810192821561068b579160200282015b8281111561068a578251825f6101000a81548173ffffffffffffffffffffffffffffffffffffffff021916908373ffffffffffffffffffffffffffffffffffffffff16021790555091602001919060010190610633565b5b509050610698919061069c565b5090565b5b808211156106b3575f815f90555060010161069d565b5090565b5f819050919050565b6106c9816106b7565b82525050565b5f6020820190506106e25f8301846106c0565b92915050565b5f5ffd5b5f73ffffffffffffffffffffffffffffffffffffffff82169050919050565b5f610715826106ec565b9050919050565b6107258161070b565b811461072f575f5ffd5b50565b5f813590506107408161071c565b92915050565b5f6020828403121561075b5761075a6106e8565b5b5f61076884828501610732565b91505092915050565b61077a8161070b565b82525050565b5f6020820190506107935f830184610771565b92915050565b6107a2816106b7565b81146107ac575f5ffd5b50565b5f813590506107bd81610799565b92915050565b5f602082840312156107d8576107d76106e8565b5b5f6107e5848285016107af565b91505092915050565b5f82825260208201905092915050565b7f4e6f7420617574686f72697a65642100000000000000000000000000000000005f82015250565b5f610832600f836107ee565b915061083d826107fe565b602082019050919050565b5f6020820190508181035f83015261085f81610826565b9050919050565b7f4e487b71000000000000000000000000000000000000000000000000000000005f52603260045260245ffd5b7f4e487b71000000000000000000000000000000000000000000000000000000005f52604160045260245ffd5b5f81905092915050565b50565b5f6108d85f836108c0565b91506108e3826108ca565b5f82019050919050565b5f6108f7826108cd565b9150819050919050565b7f43616c6c206661696c65640000000000000000000000000000000000000000005f82015250565b5f610935600b836107ee565b915061094082610901565b602082019050919050565b5f6020820190508181035f83015261096281610929565b9050919050565b7f646964206e6f742073656e6420656e6f756768204554480000000000000000005f82015250565b5f61099d6017836107ee565b91506109a882610969565b602082019050919050565b5f6020820190508181035f8301526109ca81610991565b9050919050565b7f4e487b71000000000000000000000000000000000000000000000000000000005f52601160045260245ffd5b5f610a08826106b7565b9150610a13836106b7565b9250828201905080821115610a2b57610a2a6109d1565b5b92915050565b5f610a3b826106b7565b9150610a46836106b7565b9250828202610a54816106b7565b91508282048414831517610a6b57610a6a6109d1565b5b5092915050565b7f4e487b71000000000000000000000000000000000000000000000000000000005f52601260045260245ffd5b5f610aa9826106b7565b9150610ab4836106b7565b925082610ac457610ac3610a72565b5b828204905092915050565b5f69ffffffffffffffffffff82169050919050565b610aed81610acf565b8114610af7575f5ffd5b50565b5f81519050610b0881610ae4565b92915050565b5f819050919050565b610b2081610b0e565b8114610b2a575f5ffd5b50565b5f81519050610b3b81610b17565b92915050565b5f81519050610b4f81610799565b92915050565b5f5f5f5f5f60a08688031215610b6e57610b6d6106e8565b5b5f610b7b88828901610afa565b9550506020610b8c88828901610b2d565b9450506040610b9d88828901610b41565b9350506060610bae88828901610b41565b9250506080610bbf88828901610afa565b9150509295509295909350565b5f610bd682610b0e565b9150610be183610b0e565b9250828202610bef81610b0e565b91507f800000000000000000000000000000000000000000000000000000000000000084145f84121615610c2657610c256109d1565b5b8282058414831517610c3b57610c3a6109d1565b5b509291505056fea2646970667358221220eb73487a9fb528210ceee5263388cb5a691cbbc095144e5bfe58bd0d35b74fa764736f6c634300081e0033",
					"opcodes": "PUSH1 0x80 PUSH1 0x40 MSTORE PUSH8 0x4563918244F40000 PUSH0 SSTORE CALLVALUE DUP1 ISZERO PUSH1 0x19 JUMPI PUSH0 PUSH0 REVERT JUMPDEST POP CALLER PUSH1 0x3 PUSH0 PUSH2 0x100 EXP DUP2 SLOAD DUP2 PUSH20 0xFFFFFFFFFFFFFFFFFFFFFFFFFFFFFFFFFFFFFFFF MUL NOT AND SWAP1 DUP4 PUSH20 0xFFFFFFFFFFFFFFFFFFFFFFFFFFFFFFFFFFFFFFFF AND MUL OR SWAP1 SSTORE POP PUSH2 0xC78 DUP1 PUSH2 0x67 PUSH0 CODECOPY PUSH0 RETURN INVALID PUSH1 0x80 PUSH1 0x40 MSTORE PUSH1 0x4 CALLDATASIZE LT PUSH2 0x54 JUMPI PUSH0 CALLDATALOAD PUSH1 0xE0 SHR DUP1 PUSH4 0x98DE820 EQ PUSH2 0x58 JUMPI DUP1 PUSH4 0x3CCFD60B EQ PUSH2 0x82 JUMPI DUP1 PUSH4 0x3E47D6F3 EQ PUSH2 0x98 JUMPI DUP1 PUSH4 0x8DA5CB5B EQ PUSH2 0xD4 JUMPI DUP1 PUSH4 0xB60D4288 EQ PUSH2 0xFE JUMPI DUP1 PUSH4 0xDC0D3DFF EQ PUSH2 0x108 JUMPI JUMPDEST PUSH0 PUSH0 REVERT JUMPDEST CALLVALUE DUP1 ISZERO PUSH2 0x63 JUMPI PUSH0 PUSH0 REVERT JUMPDEST POP PUSH2 0x6C PUSH2 0x144 JUMP JUMPDEST PUSH1 0x40 MLOAD PUSH2 0x79 SWAP2 SWAP1 PUSH2 0x6CF JUMP JUMPDEST PUSH1 0x40 MLOAD DUP1 SWAP2 SUB SWAP1 RETURN JUMPDEST CALLVALUE DUP1 ISZERO PUSH2 0x8D JUMPI PUSH0 PUSH0 REVERT JUMPDEST POP PUSH2 0x96 PUSH2 0x149 JUMP JUMPDEST STOP JUMPDEST CALLVALUE DUP1 ISZERO PUSH2 0xA3 JUMPI PUSH0 PUSH0 REVERT JUMPDEST POP PUSH2 0xBE PUSH1 0x4 DUP1 CALLDATASIZE SUB DUP2 ADD SWAP1 PUSH2 0xB9 SWAP2 SWAP1 PUSH2 0x746 JUMP JUMPDEST PUSH2 0x384 JUMP JUMPDEST PUSH1 0x40 MLOAD PUSH2 0xCB SWAP2 SWAP1 PUSH2 0x6CF JUMP JUMPDEST PUSH1 0x40 MLOAD DUP1 SWAP2 SUB SWAP1 RETURN JUMPDEST CALLVALUE DUP1 ISZERO PUSH2 0xDF JUMPI PUSH0 PUSH0 REVERT JUMPDEST POP PUSH2 0xE8 PUSH2 0x399 JUMP JUMPDEST PUSH1 0x40 MLOAD PUSH2 0xF5 SWAP2 SWAP1 PUSH2 0x780 JUMP JUMPDEST PUSH1 0x40 MLOAD DUP1 SWAP2 SUB SWAP1 RETURN JUMPDEST PUSH2 0x106 PUSH2 0x3BE JUMP JUMPDEST STOP JUMPDEST CALLVALUE DUP1 ISZERO PUSH2 0x113 JUMPI PUSH0 PUSH0 REVERT JUMPDEST POP PUSH2 0x12E PUSH1 0x4 DUP1 CALLDATASIZE SUB DUP2 ADD SWAP1 PUSH2 0x129 SWAP2 SWAP1 PUSH2 0x7C3 JUMP JUMPDEST PUSH2 0x500 JUMP JUMPDEST PUSH1 0x40 MLOAD PUSH2 0x13B SWAP2 SWAP1 PUSH2 0x780 JUMP JUMPDEST PUSH1 0x40 MLOAD DUP1 SWAP2 SUB SWAP1 RETURN JUMPDEST PUSH0 SLOAD DUP2 JUMP JUMPDEST PUSH1 0x3 PUSH0 SWAP1 SLOAD SWAP1 PUSH2 0x100 EXP SWAP1 DIV PUSH20 0xFFFFFFFFFFFFFFFFFFFFFFFFFFFFFFFFFFFFFFFF AND PUSH20 0xFFFFFFFFFFFFFFFFFFFFFFFFFFFFFFFFFFFFFFFF AND CALLER PUSH20 0xFFFFFFFFFFFFFFFFFFFFFFFFFFFFFFFFFFFFFFFF AND EQ PUSH2 0x1D8 JUMPI PUSH1 0x40 MLOAD PUSH32 0x8C379A000000000000000000000000000000000000000000000000000000000 DUP2 MSTORE PUSH1 0x4 ADD PUSH2 0x1CF SWAP1 PUSH2 0x848 JUMP JUMPDEST PUSH1 0x40 MLOAD DUP1 SWAP2 SUB SWAP1 REVERT JUMPDEST PUSH0 PUSH0 SWAP1 POP JUMPDEST PUSH1 0x1 DUP1 SLOAD SWAP1 POP DUP2 LT ISZERO PUSH2 0x279 JUMPI PUSH0 PUSH1 0x1 DUP3 DUP2 SLOAD DUP2 LT PUSH2 0x1FF JUMPI PUSH2 0x1FE PUSH2 0x866 JUMP JUMPDEST JUMPDEST SWAP1 PUSH0 MSTORE PUSH1 0x20 PUSH0 KECCAK256 ADD PUSH0 SWAP1 SLOAD SWAP1 PUSH2 0x100 EXP SWAP1 DIV PUSH20 0xFFFFFFFFFFFFFFFFFFFFFFFFFFFFFFFFFFFFFFFF AND SWAP1 POP PUSH0 PUSH1 0x2 PUSH0 DUP4 PUSH20 0xFFFFFFFFFFFFFFFFFFFFFFFFFFFFFFFFFFFFFFFF AND PUSH20 0xFFFFFFFFFFFFFFFFFFFFFFFFFFFFFFFFFFFFFFFF AND DUP2 MSTORE PUSH1 0x20 ADD SWAP1 DUP2 MSTORE PUSH1 0x20 ADD PUSH0 KECCAK256 DUP2 SWAP1 SSTORE POP POP DUP1 DUP1 PUSH1 0x1 ADD SWAP2 POP POP PUSH2 0x1DD JUMP JUMPDEST POP PUSH0 PUSH8 0xFFFFFFFFFFFFFFFF DUP2 GT ISZERO PUSH2 0x294 JUMPI PUSH2 0x293 PUSH2 0x893 JUMP JUMPDEST JUMPDEST PUSH1 0x40 MLOAD SWAP1 DUP1 DUP3 MSTORE DUP1 PUSH1 0x20 MUL PUSH1 0x20 ADD DUP3 ADD PUSH1 0x40 MSTORE DUP1 ISZERO PUSH2 0x2C2 JUMPI DUP2 PUSH1 0x20 ADD PUSH1 0x20 DUP3 MUL DUP1 CALLDATASIZE DUP4 CALLDATACOPY DUP1 DUP3 ADD SWAP2 POP POP SWAP1 POP JUMPDEST POP PUSH1 0x1 SWAP1 DUP1 MLOAD SWAP1 PUSH1 0x20 ADD SWAP1 PUSH2 0x2D8 SWAP3 SWAP2 SWAP1 PUSH2 0x615 JUMP JUMPDEST POP PUSH0 CALLER PUSH20 0xFFFFFFFFFFFFFFFFFFFFFFFFFFFFFFFFFFFFFFFF AND SELFBALANCE PUSH1 0x40 MLOAD PUSH2 0x2FE SWAP1 PUSH2 0x8ED JUMP JUMPDEST PUSH0 PUSH1 0x40 MLOAD DUP1 DUP4 SUB DUP2 DUP6 DUP8 GAS CALL SWAP3 POP POP POP RETURNDATASIZE DUP1 PUSH0 DUP2 EQ PUSH2 0x338 JUMPI PUSH1 0x40 MLOAD SWAP2 POP PUSH1 0x1F NOT PUSH1 0x3F RETURNDATASIZE ADD AND DUP3 ADD PUSH1 0x40 MSTORE RETURNDATASIZE DUP3 MSTORE RETURNDATASIZE PUSH0 PUSH1 0x20 DUP5 ADD RETURNDATACOPY PUSH2 0x33D JUMP JUMPDEST PUSH1 0x60 SWAP2 POP JUMPDEST POP POP SWAP1 POP DUP1 PUSH2 0x381 JUMPI PUSH1 0x40 MLOAD PUSH32 0x8C379A000000000000000000000000000000000000000000000000000000000 DUP2 MSTORE PUSH1 0x4 ADD PUSH2 0x378 SWAP1 PUSH2 0x94B JUMP JUMPDEST PUSH1 0x40 MLOAD DUP1 SWAP2 SUB SWAP1 REVERT JUMPDEST POP JUMP JUMPDEST PUSH1 0x2 PUSH1 0x20 MSTORE DUP1 PUSH0 MSTORE PUSH1 0x40 PUSH0 KECCAK256 PUSH0 SWAP2 POP SWAP1 POP SLOAD DUP2 JUMP JUMPDEST PUSH1 0x3 PUSH0 SWAP1 SLOAD SWAP1 PUSH2 0x100 EXP SWAP1 DIV PUSH20 0xFFFFFFFFFFFFFFFFFFFFFFFFFFFFFFFFFFFFFFFF AND DUP2 JUMP JUMPDEST PUSH2 0x3C7 CALLVALUE PUSH2 0x53B JUMP JUMPDEST POP PUSH0 SLOAD PUSH2 0x3D3 CALLVALUE PUSH2 0x53B JUMP JUMPDEST LT ISZERO PUSH2 0x414 JUMPI PUSH1 0x40 MLOAD PUSH32 0x8C379A000000000000000000000000000000000000000000000000000000000 DUP2 MSTORE PUSH1 0x4 ADD PUSH2 0x40B SWAP1 PUSH2 0x9B3 JUMP JUMPDEST PUSH1 0x40 MLOAD DUP1 SWAP2 SUB SWAP1 REVERT JUMPDEST PUSH1 0x1 CALLER SWAP1 DUP1 PUSH1 0x1 DUP2 SLOAD ADD DUP1 DUP3 SSTORE DUP1 SWAP2 POP POP PUSH1 0x1 SWAP1 SUB SWAP1 PUSH0 MSTORE PUSH1 0x20 PUSH0 KECCAK256 ADD PUSH0 SWAP1 SWAP2 SWAP1 SWAP2 SWAP1 SWAP2 PUSH2 0x100 EXP DUP2 SLOAD DUP2 PUSH20 0xFFFFFFFFFFFFFFFFFFFFFFFFFFFFFFFFFFFFFFFF MUL NOT AND SWAP1 DUP4 PUSH20 0xFFFFFFFFFFFFFFFFFFFFFFFFFFFFFFFFFFFFFFFF AND MUL OR SWAP1 SSTORE POP CALLVALUE PUSH1 0x2 PUSH0 CALLER PUSH20 0xFFFFFFFFFFFFFFFFFFFFFFFFFFFFFFFFFFFFFFFF AND PUSH20 0xFFFFFFFFFFFFFFFFFFFFFFFFFFFFFFFFFFFFFFFF AND DUP2 MSTORE PUSH1 0x20 ADD SWAP1 DUP2 MSTORE PUSH1 0x20 ADD PUSH0 KECCAK256 SLOAD PUSH2 0x4BD SWAP2 SWAP1 PUSH2 0x9FE JUMP JUMPDEST PUSH1 0x2 PUSH0 CALLER PUSH20 0xFFFFFFFFFFFFFFFFFFFFFFFFFFFFFFFFFFFFFFFF AND PUSH20 0xFFFFFFFFFFFFFFFFFFFFFFFFFFFFFFFFFFFFFFFF AND DUP2 MSTORE PUSH1 0x20 ADD SWAP1 DUP2 MSTORE PUSH1 0x20 ADD PUSH0 KECCAK256 DUP2 SWAP1 SSTORE POP JUMP JUMPDEST PUSH1 0x1 DUP2 DUP2 SLOAD DUP2 LT PUSH2 0x50F JUMPI PUSH0 DUP1 REVERT JUMPDEST SWAP1 PUSH0 MSTORE PUSH1 0x20 PUSH0 KECCAK256 ADD PUSH0 SWAP2 POP SLOAD SWAP1 PUSH2 0x100 EXP SWAP1 DIV PUSH20 0xFFFFFFFFFFFFFFFFFFFFFFFFFFFFFFFFFFFFFFFF AND DUP2 JUMP JUMPDEST PUSH0 PUSH0 PUSH2 0x545 PUSH2 0x570 JUMP JUMPDEST SWAP1 POP PUSH0 PUSH5 0x2540BE400 DUP5 DUP4 PUSH2 0x55A SWAP2 SWAP1 PUSH2 0xA31 JUMP JUMPDEST PUSH2 0x564 SWAP2 SWAP1 PUSH2 0xA9F JUMP JUMPDEST SWAP1 POP DUP1 SWAP3 POP POP POP SWAP2 SWAP1 POP JUMP JUMPDEST PUSH0 PUSH0 PUSH20 0x694AA1769357215DE4FAC081BF1F309ADC325306 SWAP1 POP PUSH0 DUP2 PUSH20 0xFFFFFFFFFFFFFFFFFFFFFFFFFFFFFFFFFFFFFFFF AND PUSH4 0xFEAF968C PUSH1 0x40 MLOAD DUP2 PUSH4 0xFFFFFFFF AND PUSH1 0xE0 SHL DUP2 MSTORE PUSH1 0x4 ADD PUSH1 0xA0 PUSH1 0x40 MLOAD DUP1 DUP4 SUB DUP2 DUP7 GAS STATICCALL ISZERO DUP1 ISZERO PUSH2 0x5D3 JUMPI RETURNDATASIZE PUSH0 PUSH0 RETURNDATACOPY RETURNDATASIZE PUSH0 REVERT JUMPDEST POP POP POP POP PUSH1 0x40 MLOAD RETURNDATASIZE PUSH1 0x1F NOT PUSH1 0x1F DUP3 ADD AND DUP3 ADD DUP1 PUSH1 0x40 MSTORE POP DUP2 ADD SWAP1 PUSH2 0x5F7 SWAP2 SWAP1 PUSH2 0xB55 JUMP JUMPDEST POP POP POP SWAP2 POP POP PUSH5 0x2540BE400 DUP2 PUSH2 0x60E SWAP2 SWAP1 PUSH2 0xBCC JUMP JUMPDEST SWAP3 POP POP POP SWAP1 JUMP JUMPDEST DUP3 DUP1 SLOAD DUP3 DUP3 SSTORE SWAP1 PUSH0 MSTORE PUSH1 0x20 PUSH0 KECCAK256 SWAP1 DUP2 ADD SWAP3 DUP3 ISZERO PUSH2 0x68B JUMPI SWAP2 PUSH1 0x20 MUL DUP3 ADD JUMPDEST DUP3 DUP2 GT ISZERO PUSH2 0x68A JUMPI DUP3 MLOAD DUP3 PUSH0 PUSH2 0x100 EXP DUP2 SLOAD DUP2 PUSH20 0xFFFFFFFFFFFFFFFFFFFFFFFFFFFFFFFFFFFFFFFF MUL NOT AND SWAP1 DUP4 PUSH20 0xFFFFFFFFFFFFFFFFFFFFFFFFFFFFFFFFFFFFFFFF AND MUL OR SWAP1 SSTORE POP SWAP2 PUSH1 0x20 ADD SWAP2 SWAP1 PUSH1 0x1 ADD SWAP1 PUSH2 0x633 JUMP JUMPDEST JUMPDEST POP SWAP1 POP PUSH2 0x698 SWAP2 SWAP1 PUSH2 0x69C JUMP JUMPDEST POP SWAP1 JUMP JUMPDEST JUMPDEST DUP1 DUP3 GT ISZERO PUSH2 0x6B3 JUMPI PUSH0 DUP2 PUSH0 SWAP1 SSTORE POP PUSH1 0x1 ADD PUSH2 0x69D JUMP JUMPDEST POP SWAP1 JUMP JUMPDEST PUSH0 DUP2 SWAP1 POP SWAP2 SWAP1 POP JUMP JUMPDEST PUSH2 0x6C9 DUP2 PUSH2 0x6B7 JUMP JUMPDEST DUP3 MSTORE POP POP JUMP JUMPDEST PUSH0 PUSH1 0x20 DUP3 ADD SWAP1 POP PUSH2 0x6E2 PUSH0 DUP4 ADD DUP5 PUSH2 0x6C0 JUMP JUMPDEST SWAP3 SWAP2 POP POP JUMP JUMPDEST PUSH0 PUSH0 REVERT JUMPDEST PUSH0 PUSH20 0xFFFFFFFFFFFFFFFFFFFFFFFFFFFFFFFFFFFFFFFF DUP3 AND SWAP1 POP SWAP2 SWAP1 POP JUMP JUMPDEST PUSH0 PUSH2 0x715 DUP3 PUSH2 0x6EC JUMP JUMPDEST SWAP1 POP SWAP2 SWAP1 POP JUMP JUMPDEST PUSH2 0x725 DUP2 PUSH2 0x70B JUMP JUMPDEST DUP2 EQ PUSH2 0x72F JUMPI PUSH0 PUSH0 REVERT JUMPDEST POP JUMP JUMPDEST PUSH0 DUP2 CALLDATALOAD SWAP1 POP PUSH2 0x740 DUP2 PUSH2 0x71C JUMP JUMPDEST SWAP3 SWAP2 POP POP JUMP JUMPDEST PUSH0 PUSH1 0x20 DUP3 DUP5 SUB SLT ISZERO PUSH2 0x75B JUMPI PUSH2 0x75A PUSH2 0x6E8 JUMP JUMPDEST JUMPDEST PUSH0 PUSH2 0x768 DUP5 DUP3 DUP6 ADD PUSH2 0x732 JUMP JUMPDEST SWAP2 POP POP SWAP3 SWAP2 POP POP JUMP JUMPDEST PUSH2 0x77A DUP2 PUSH2 0x70B JUMP JUMPDEST DUP3 MSTORE POP POP JUMP JUMPDEST PUSH0 PUSH1 0x20 DUP3 ADD SWAP1 POP PUSH2 0x793 PUSH0 DUP4 ADD DUP5 PUSH2 0x771 JUMP JUMPDEST SWAP3 SWAP2 POP POP JUMP JUMPDEST PUSH2 0x7A2 DUP2 PUSH2 0x6B7 JUMP JUMPDEST DUP2 EQ PUSH2 0x7AC JUMPI PUSH0 PUSH0 REVERT JUMPDEST POP JUMP JUMPDEST PUSH0 DUP2 CALLDATALOAD SWAP1 POP PUSH2 0x7BD DUP2 PUSH2 0x799 JUMP JUMPDEST SWAP3 SWAP2 POP POP JUMP JUMPDEST PUSH0 PUSH1 0x20 DUP3 DUP5 SUB SLT ISZERO PUSH2 0x7D8 JUMPI PUSH2 0x7D7 PUSH2 0x6E8 JUMP JUMPDEST JUMPDEST PUSH0 PUSH2 0x7E5 DUP5 DUP3 DUP6 ADD PUSH2 0x7AF JUMP JUMPDEST SWAP2 POP POP SWAP3 SWAP2 POP POP JUMP JUMPDEST PUSH0 DUP3 DUP3 MSTORE PUSH1 0x20 DUP3 ADD SWAP1 POP SWAP3 SWAP2 POP POP JUMP JUMPDEST PUSH32 0x4E6F7420617574686F72697A6564210000000000000000000000000000000000 PUSH0 DUP3 ADD MSTORE POP JUMP JUMPDEST PUSH0 PUSH2 0x832 PUSH1 0xF DUP4 PUSH2 0x7EE JUMP JUMPDEST SWAP2 POP PUSH2 0x83D DUP3 PUSH2 0x7FE JUMP JUMPDEST PUSH1 0x20 DUP3 ADD SWAP1 POP SWAP2 SWAP1 POP JUMP JUMPDEST PUSH0 PUSH1 0x20 DUP3 ADD SWAP1 POP DUP2 DUP2 SUB PUSH0 DUP4 ADD MSTORE PUSH2 0x85F DUP2 PUSH2 0x826 JUMP JUMPDEST SWAP1 POP SWAP2 SWAP1 POP JUMP JUMPDEST PUSH32 0x4E487B7100000000000000000000000000000000000000000000000000000000 PUSH0 MSTORE PUSH1 0x32 PUSH1 0x4 MSTORE PUSH1 0x24 PUSH0 REVERT JUMPDEST PUSH32 0x4E487B7100000000000000000000000000000000000000000000000000000000 PUSH0 MSTORE PUSH1 0x41 PUSH1 0x4 MSTORE PUSH1 0x24 PUSH0 REVERT JUMPDEST PUSH0 DUP2 SWAP1 POP SWAP3 SWAP2 POP POP JUMP JUMPDEST POP JUMP JUMPDEST PUSH0 PUSH2 0x8D8 PUSH0 DUP4 PUSH2 0x8C0 JUMP JUMPDEST SWAP2 POP PUSH2 0x8E3 DUP3 PUSH2 0x8CA JUMP JUMPDEST PUSH0 DUP3 ADD SWAP1 POP SWAP2 SWAP1 POP JUMP JUMPDEST PUSH0 PUSH2 0x8F7 DUP3 PUSH2 0x8CD JUMP JUMPDEST SWAP2 POP DUP2 SWAP1 POP SWAP2 SWAP1 POP JUMP JUMPDEST PUSH32 0x43616C6C206661696C6564000000000000000000000000000000000000000000 PUSH0 DUP3 ADD MSTORE POP JUMP JUMPDEST PUSH0 PUSH2 0x935 PUSH1 0xB DUP4 PUSH2 0x7EE JUMP JUMPDEST SWAP2 POP PUSH2 0x940 DUP3 PUSH2 0x901 JUMP JUMPDEST PUSH1 0x20 DUP3 ADD SWAP1 POP SWAP2 SWAP1 POP JUMP JUMPDEST PUSH0 PUSH1 0x20 DUP3 ADD SWAP1 POP DUP2 DUP2 SUB PUSH0 DUP4 ADD MSTORE PUSH2 0x962 DUP2 PUSH2 0x929 JUMP JUMPDEST SWAP1 POP SWAP2 SWAP1 POP JUMP JUMPDEST PUSH32 0x646964206E6F742073656E6420656E6F75676820455448000000000000000000 PUSH0 DUP3 ADD MSTORE POP JUMP JUMPDEST PUSH0 PUSH2 0x99D PUSH1 0x17 DUP4 PUSH2 0x7EE JUMP JUMPDEST SWAP2 POP PUSH2 0x9A8 DUP3 PUSH2 0x969 JUMP JUMPDEST PUSH1 0x20 DUP3 ADD SWAP1 POP SWAP2 SWAP1 POP JUMP JUMPDEST PUSH0 PUSH1 0x20 DUP3 ADD SWAP1 POP DUP2 DUP2 SUB PUSH0 DUP4 ADD MSTORE PUSH2 0x9CA DUP2 PUSH2 0x991 JUMP JUMPDEST SWAP1 POP SWAP2 SWAP1 POP JUMP JUMPDEST PUSH32 0x4E487B7100000000000000000000000000000000000000000000000000000000 PUSH0 MSTORE PUSH1 0x11 PUSH1 0x4 MSTORE PUSH1 0x24 PUSH0 REVERT JUMPDEST PUSH0 PUSH2 0xA08 DUP3 PUSH2 0x6B7 JUMP JUMPDEST SWAP2 POP PUSH2 0xA13 DUP4 PUSH2 0x6B7 JUMP JUMPDEST SWAP3 POP DUP3 DUP3 ADD SWAP1 POP DUP1 DUP3 GT ISZERO PUSH2 0xA2B JUMPI PUSH2 0xA2A PUSH2 0x9D1 JUMP JUMPDEST JUMPDEST SWAP3 SWAP2 POP POP JUMP JUMPDEST PUSH0 PUSH2 0xA3B DUP3 PUSH2 0x6B7 JUMP JUMPDEST SWAP2 POP PUSH2 0xA46 DUP4 PUSH2 0x6B7 JUMP JUMPDEST SWAP3 POP DUP3 DUP3 MUL PUSH2 0xA54 DUP2 PUSH2 0x6B7 JUMP JUMPDEST SWAP2 POP DUP3 DUP3 DIV DUP5 EQ DUP4 ISZERO OR PUSH2 0xA6B JUMPI PUSH2 0xA6A PUSH2 0x9D1 JUMP JUMPDEST JUMPDEST POP SWAP3 SWAP2 POP POP JUMP JUMPDEST PUSH32 0x4E487B7100000000000000000000000000000000000000000000000000000000 PUSH0 MSTORE PUSH1 0x12 PUSH1 0x4 MSTORE PUSH1 0x24 PUSH0 REVERT JUMPDEST PUSH0 PUSH2 0xAA9 DUP3 PUSH2 0x6B7 JUMP JUMPDEST SWAP2 POP PUSH2 0xAB4 DUP4 PUSH2 0x6B7 JUMP JUMPDEST SWAP3 POP DUP3 PUSH2 0xAC4 JUMPI PUSH2 0xAC3 PUSH2 0xA72 JUMP JUMPDEST JUMPDEST DUP3 DUP3 DIV SWAP1 POP SWAP3 SWAP2 POP POP JUMP JUMPDEST PUSH0 PUSH10 0xFFFFFFFFFFFFFFFFFFFF DUP3 AND SWAP1 POP SWAP2 SWAP1 POP JUMP JUMPDEST PUSH2 0xAED DUP2 PUSH2 0xACF JUMP JUMPDEST DUP2 EQ PUSH2 0xAF7 JUMPI PUSH0 PUSH0 REVERT JUMPDEST POP JUMP JUMPDEST PUSH0 DUP2 MLOAD SWAP1 POP PUSH2 0xB08 DUP2 PUSH2 0xAE4 JUMP JUMPDEST SWAP3 SWAP2 POP POP JUMP JUMPDEST PUSH0 DUP2 SWAP1 POP SWAP2 SWAP1 POP JUMP JUMPDEST PUSH2 0xB20 DUP2 PUSH2 0xB0E JUMP JUMPDEST DUP2 EQ PUSH2 0xB2A JUMPI PUSH0 PUSH0 REVERT JUMPDEST POP JUMP JUMPDEST PUSH0 DUP2 MLOAD SWAP1 POP PUSH2 0xB3B DUP2 PUSH2 0xB17 JUMP JUMPDEST SWAP3 SWAP2 POP POP JUMP JUMPDEST PUSH0 DUP2 MLOAD SWAP1 POP PUSH2 0xB4F DUP2 PUSH2 0x799 JUMP JUMPDEST SWAP3 SWAP2 POP POP JUMP JUMPDEST PUSH0 PUSH0 PUSH0 PUSH0 PUSH0 PUSH1 0xA0 DUP7 DUP9 SUB SLT ISZERO PUSH2 0xB6E JUMPI PUSH2 0xB6D PUSH2 0x6E8 JUMP JUMPDEST JUMPDEST PUSH0 PUSH2 0xB7B DUP9 DUP3 DUP10 ADD PUSH2 0xAFA JUMP JUMPDEST SWAP6 POP POP PUSH1 0x20 PUSH2 0xB8C DUP9 DUP3 DUP10 ADD PUSH2 0xB2D JUMP JUMPDEST SWAP5 POP POP PUSH1 0x40 PUSH2 0xB9D DUP9 DUP3 DUP10 ADD PUSH2 0xB41 JUMP JUMPDEST SWAP4 POP POP PUSH1 0x60 PUSH2 0xBAE DUP9 DUP3 DUP10 ADD PUSH2 0xB41 JUMP JUMPDEST SWAP3 POP POP PUSH1 0x80 PUSH2 0xBBF DUP9 DUP3 DUP10 ADD PUSH2 0xAFA JUMP JUMPDEST SWAP2 POP POP SWAP3 SWAP6 POP SWAP3 SWAP6 SWAP1 SWAP4 POP JUMP JUMPDEST PUSH0 PUSH2 0xBD6 DUP3 PUSH2 0xB0E JUMP JUMPDEST SWAP2 POP PUSH2 0xBE1 DUP4 PUSH2 0xB0E JUMP JUMPDEST SWAP3 POP DUP3 DUP3 MUL PUSH2 0xBEF DUP2 PUSH2 0xB0E JUMP JUMPDEST SWAP2 POP PUSH32 0x8000000000000000000000000000000000000000000000000000000000000000 DUP5 EQ PUSH0 DUP5 SLT AND ISZERO PUSH2 0xC26 JUMPI PUSH2 0xC25 PUSH2 0x9D1 JUMP JUMPDEST JUMPDEST DUP3 DUP3 SDIV DUP5 EQ DUP4 ISZERO OR PUSH2 0xC3B JUMPI PUSH2 0xC3A PUSH2 0x9D1 JUMP JUMPDEST JUMPDEST POP SWAP3 SWAP2 POP POP JUMP INVALID LOG2 PUSH5 0x6970667358 0x22 SLT KECCAK256 0xEB PUSH20 0x487A9FB528210CEEE5263388CB5A691CBBC09514 0x4E JUMPDEST INVALID PC 0xBD 0xD CALLDATALOAD 0xB7 0x4F 0xA7 PUSH5 0x736F6C6343 STOP ADDMOD 0x1E STOP CALLER "
				},
				"gasEstimates": {
					"creation": {
						"codeDepositCost": "638400",
						"executionCost": "47038",
						"totalCost": "685438"
					},
					"external": {
						"addressToAmountFunded(address)": "2824",
						"fund()": "infinite",
						"funders(uint256)": "5032",
						"minimumUsd()": "2402",
						"owner()": "2552",
						"withdraw()": "infinite"
					}
				},
				"methodIdentifiers": {
					"addressToAmountFunded(address)": "3e47d6f3",
					"fund()": "b60d4288",
					"funders(uint256)": "dc0d3dff",
					"minimumUsd()": "098de820",
					"owner()": "8da5cb5b",
					"withdraw()": "3ccfd60b"
				}
			},
			"storageLayout": {
				"storage": [
					{
						"astId": 55,
						"contract": "FundeMe.sol:FundMe",
						"label": "minimumUsd",
						"offset": 0,
						"slot": "0",
						"type": "t_uint256"
					},
					{
						"astId": 58,
						"contract": "FundeMe.sol:FundMe",
						"label": "funders",
						"offset": 0,
						"slot": "1",
						"type": "t_array(t_address)dyn_storage"
					},
					{
						"astId": 62,
						"contract": "FundeMe.sol:FundMe",
						"label": "addressToAmountFunded",
						"offset": 0,
						"slot": "2",
						"type": "t_mapping(t_address,t_uint256)"
					},
					{
						"astId": 64,
						"contract": "FundeMe.sol:FundMe",
						"label": "owner",
						"offset": 0,
						"slot": "3",
						"type": "t_address"
					}
				],
				"types": {
					"t_address": {
						"encoding": "inplace",
						"label": "address",
						"numberOfBytes": "20"
					},
					"t_array(t_address)dyn_storage": {
						"base": "t_address",
						"encoding": "dynamic_array",
						"label": "address[]",
						"numberOfBytes": "32"
					},
					"t_mapping(t_address,t_uint256)": {
						"encoding": "mapping",
						"key": "t_address",
						"label": "mapping(address => uint256)",
						"numberOfBytes": "32",
						"value": "t_uint256"
					},
					"t_uint256": {
						"encoding": "inplace",
						"label": "uint256",
						"numberOfBytes": "32"
					}
				}
			},
			"userdoc": {
				"kind": "user",
				"methods": {},
				"version": 1
			}
		}
	}
}